:020000040800F2
:1000000000000320BD17000821170008271700086B
:100010002D170008331700083917000800000000EA
:100020000000000000000000000000003F17000872
:100030004D170008000000005B1700086917000852
:100040000D1800080D1800080D1800080D180008FC
:100050000D1800080D1800080D1800080D180008EC
:100060000D1800080D1800080D1800080D180008DC
:100070000D1800080D1800080D1800080D180008CC
:10008000771700080D1800080D1800080D18000853
:100090000D1800080D1800080D1800080D180008AC
:1000A0000D1800080D1800080D1800080D1800089C
:1000B0000D1800080D1800080D1800080D1800088C
:1000C0000D1800080D1800080D1800080D1800087C
:1000D0000D1800080D1800080D1800080D1800086C
:1000E0000D1800080D1800080D1800080D1800085C
:1000F0000D1800080D1800080D1800080D1800084C
:100100000D1800080D1800080D1800080D1800083B
:100110000D1800080D180008851700080D180008B4
:100120000D1800080D1800080D1800080D1800081B
:100130000D1800080D1800080D1800080D1800080B
:100140000D1800080D1800080D1800080D180008FB
:100150000D1800080D1800080D1800080D180008EB
:100160000D1800080D1800080D1800080D180008DB
:100170000D1800080D1800080D18000800000000F8
:100180000D1800080D1800080D1800080D180008BB
:100190000D1800080D1800080D1800080D180008AB
:0C01A0000D1800080D1800080D180008CC
:1001AC0010B5054C237833B9044B13B10448AFF3A5
:1001BC0000800123237010BD0C0000200000000003
:1001CC001034000808B5034B1BB103490348AFF3C7
:1001DC00008008BD00000000100000201034000852
:1001EC0080B400AF044BDB681B0A03F0070318460E
:1001FC00BD465DF8047B704700ED00E080B483B031
:10020C0000AF0346FB7197F90730002B0BDBFB7932
:10021C0003F01F02074997F907305B09012000FA28
:10022C0002F241F8232000BF0C37BD465DF8047B79
:10023C00704700BF00E100E080B483B000AF03461C
:10024C003960FB7197F90730002B0ADB3B68DAB297
:10025C000C4997F907301201D2B20B4483F80023F2
:10026C000AE03B68DAB20849FB7903F00F03043B60
:10027C001201D2B20B441A7600BF0C37BD465DF8A2
:10028C00047B704700E100E000ED00E080B489B031
:10029C0000AFF860B9607A60FB6803F00703FB619C
:1002AC00FB69C3F10703042B28BF0423BB61FB6963
:1002BC000433062B02D9FB69033B00E000237B616E
:1002CC004FF0FF32BB6902FA03F3DA43BB681A4002
:1002DC007B699A404FF0FF317B6901FA03F3D943F4
:1002EC007B680B40134318462437BD465DF8047BEE
:1002FC007047000080B485B000AFF860B9607A60D8
:10030C000D4ABB6813441B781A46FB6813441B68E0
:10031C0023F0C0020849BB680B441B781946FB68E4
:10032C000B4419467B6813430B6000BF1437BD4662
:10033C005DF8047B704700BF2834000880B485B09A
:10034C0000AFF860B9607A600D4ABB6813441B7843
:10035C001A46FB6813441B6823F490720849BB6867
:10036C000B441B781946FB680B4419467B681343F6
:10037C000B6000BF1437BD465DF8047B704700BFAF
:10038C002834000880B485B000AFF860B9607A609A
:10039C000D4ABB6813441B781A46FB6813441B6850
:1003AC0023F400720849BB680B441B781946FB68A0
:1003BC000B4419467B6813430B6000BF1437BD46D2
:1003CC005DF8047B704700BF2834000880B485B00A
:1003DC0000AFF860B9607A600D4ABB6813441B78B3
:1003EC001A46FB6813441B6823F480620849BB68F7
:1003FC000B441B781946FB680B4419467B68134366
:10040C000B6000BF1437BD465DF8047B704700BF1E
:10041C002834000880B485B000AFF860B9607A6009
:10042C000D4ABB6813441B781A46FB6813441B68BF
:10043C0023F4C0520849BB680B441B781946FB686F
:10044C000B4419467B6813430B6000BF1437BD4641
:10045C005DF8047B704700BF2834000880B485B079
:10046C0000AFF860B9607A600D4ABB6813441B7822
:10047C001A46FB6813441B6823F4C0420849BB6846
:10048C000B441B781946FB680B4419467B681343D5
:10049C000B6000BF1437BD465DF8047B704700BF8E
:1004AC002834000880B485B000AFF860B9607A6079
:1004BC000D4ABB6813441B781A46FB6813441B682F
:1004CC0023F440320849BB680B441B781946FB687F
:1004DC000B4419467B6813430B6000BF1437BD46B1
:1004EC005DF8047B704700BF2834000880B485B0E9
:1004FC0000AFF860B9607A600D4ABB6813441B7892
:10050C001A46FB6813441B6823F060620849BB68F9
:10051C000B441B781946FB680B4419467B68134344
:10052C000B6000BF1437BD465DF8047B704700BFFD
:10053C002834000880B483B000AF786039600C4A6E
:10054C003B6813441B781A467B6813445B69084963
:10055C003A680A44127811467A680A4423F0040374
:10056C00536100BF0C37BD465DF8047B704700BF7C
:10057C002834000880B400AF054B1B68044A43F4D0
:10058C000023136000BFBD465DF8047B704700BFBD
:10059C000038024080B400AF054B1B68044A43F49A
:1005AC008033136000BFBD465DF8047B704700BF0D
:1005BC000038024080B400AF074B1B6803F40033D3
:1005CC00B3F5003F0CBF01230023DBB21846BD4638
:1005DC005DF8047B704700BF0038024080B483B0E4
:1005EC0000AF7860064B9B6823F0030204497B68DC
:1005FC0013438B6000BF0C37BD465DF8047B70471E
:10060C000038024080B400AF044B9B6803F00C032D
:10061C001846BD465DF8047B704700BF00380240A9
:10062C0080B483B000AF7860064B9B6823F0F00277
:10063C0004497B6813438B6000BF0C37BD465DF8E3
:10064C00047B70470038024080B483B000AF786000
:10065C00064B9B6823F4E05204497B6813438B6080
:10066C0000BF0C37BD465DF8047B70470038024074
:10067C0080B483B000AF7860064B9B6823F4604273
:10068C0004497B6813438B6000BF0C37BD465DF893
:10069C00047B70470038024080B483B000AF7860B0
:1006AC00074BD3F88C3023F0807205497B681343D9
:1006BC00C1F88C3000BF0C37BD465DF8047B704729
:1006CC000038024080B400AF054B1B68044A43F06D
:1006DC008073136000BFBD465DF8047B704700BF9C
:1006EC000038024080B400AF074B1B6803F0007366
:1006FC00B3F1007F0CBF01230023DBB21846BD46CB
:10070C005DF8047B704700BF0038024080B485B0B0
:10071C0000AFF860B9607A603B600D4B5A680D4BC6
:10072C001340F968BA6811437A6892010A43084980
:10073C0013434B60064B5B6823F4403204493B681F
:10074C0013434B6000BF1437BD465DF8047B704704
:10075C00003802400080BFFF80B485B000AF7860E5
:10076C00084B1A6B07497B6813430B63054B1A6BD9
:10077C007B681340FB60FB6800BF1437BD465DF817
:10078C00047B70470038024080B485B000AF7860BD
:10079C00084B1A6C07497B6813430B64054B1A6CA6
:1007AC007B681340FB60FB6800BF1437BD465DF8E7
:1007BC00047B70470038024080B485B000AF78608D
:1007CC00084B5A6C07497B6813434B64054B5A6CB6
:1007DC007B681340FB60FB6800BF1437BD465DF8B7
:1007EC00047B70470038024080B487B000AF78605B
:1007FC003960174A3B68DBB2023352F823203B685E
:10080C001B0CDB4302EA03013B681B0C3B613B699D
:10081C0093FAA3F3FB60FB687B617B69002B01D12E
:10082C00202303E07B69B3FA83F3DBB21A467B68BF
:10083C0003FA02F206483B68DBB20A43023340F883
:10084C00232000BF1C37BD465DF8047B704700BFFA
:10085C000038014080B483B000AF7860064B1B6851
:10086C0023F00F0204497B6813430B6000BF0C3765
:10087C00BD465DF8047B7047003C024080B400AF7D
:10088C00044B1B6803F00F031846BD465DF8047B50
:10089C00704700BF003C024080B400AF054B1B68A2
:1008AC00044A23F48033136000BFBD465DF8047B1B
:1008BC00704700BF0070004080B483B000AF786018
:1008CC00064B1B6823F4404204497B6813430B60BE
:1008DC0000BF0C37BD465DF8047B704700700040CC
:1008EC0080B400AF074B5B6803F48043B3F5804FD3
:1008FC000CBF01230023DBB21846BD465DF8047B18
:10090C00704700BF0070004080B483B000AF7860C7
:10091C0039607B685B6823F010023B681A437B6884
:10092C005A6000BF0C37BD465DF8047B704780B43D
:10093C0083B000AF78607B681B6823F080027B6813
:10094C001A6000BF0C37BD465DF8047B7047000091
:10095C0080B485B000AF786039603B68012B1CD047
:10096C003B68042B17D03B68102B12D03B68402BF4
:10097C000DD03B68B3F5807F07D03B68B3F5806F33
:10098C0001D105230AE0062308E0042306E0032333
:10099C0004E0022302E0012300E00023FB737B68E8
:1009AC0018331946FB7B0B4AD35C0B44BB60BB680A
:1009BC001A68FB7B0849CB5C194604238B40DB434C
:1009CC001A40BB681A6000BF1437BD465DF8047B43
:1009DC00704700BF303400083834000880B485B04C
:1009EC0000AF786039603B68012B1CD03B68042B4E
:1009FC0017D03B68102B12D03B68402B0DD03B68B6
:100A0C00B3F5807F07D03B68B3F5806F01D1052328
:100A1C000AE0062308E0042306E0032304E0022393
:100A2C0002E0012300E00023FB737B6818331946B6
:100A3C00FB7B0A4AD35C0B44BB60BB681A68FB7B2C
:100A4C000749CB5C194608238B401A43BB681A60D4
:100A5C0000BF1437BD465DF8047B70473034000886
:100A6C003834000880B483B000AF786039607B689C
:100A7C009B6823F4804323F007033A681A437B688E
:100A8C009A6000BF0C37BD465DF8047B704780B49C
:100A9C0083B000AF786039607B685B6823F07002CC
:100AAC003B681A437B685A6000BF0C37BD465DF843
:100ABC00047B704780B483B000AF78607B689B6820
:100ACC0023F080027B689A6000BF0C37BD465DF84E
:100ADC00047B704780B48BB000AFF860B9607A606B
:100AEC00FB681A68BB687B617B6993FAA3F33B6173
:100AFC003B69BB61BB69002B01D1202303E0BB69BF
:100B0C00B3FA83F3DBB25B00032101FA03F3DB439B
:100B1C001A40BB683B623B6A93FAA3F3FB61FB6927
:100B2C007B627B6A002B01D1202303E07B6AB3FA42
:100B3C0083F3DBB25B00796801FA03F31A43FB68B9
:100B4C001A6000BF2C37BD465DF8047B704780B43B
:100B5C008BB000AFF860B9607A60FB68DA68BB688C
:100B6C007B617B6993FAA3F33B613B69BB61BB6916
:100B7C00002B01D1202303E0BB69B3FA83F3DBB272
:100B8C005B00032101FA03F3DB431A40BB683B62B1
:100B9C003B6A93FAA3F3FB61FB697B627B6A002BD4
:100BAC0001D1202303E07B6AB3FA83F3DBB25B0051
:100BBC00796801FA03F31A43FB68DA6000BF2C373B
:100BCC00BD465DF8047B704780B483B000AF78609D
:100BDC0039603B681A047B689A6100BF0C37BD46CC
:100BEC005DF8047B704780B500AF00F00BFE00F0A1
:100BFC000DF800F0F3F900F0D9F900F05DF800F011
:100C0C009BF800F035F900F065F9FEE780B500AF10
:100C1C000220FFF71FFE00BFFFF730FE0346022B3A
:100C2C00FAD14FF48040FFF747FEFFF735FEFFF790
:100C3C00B1FC00BFFFF7BEFC0346012BFAD1FFF756
:100C4C0099FC0023482204214FF48000FFF75EFD3D
:100C5C00FFF738FD00BFFFF745FD0346012BFAD126
:100C6C0000BFFFF73DFE0346002BFAD00020FFF734
:100C7C00D7FC4FF48050FFF7E7FC0020FFF7F8FC9F
:100C8C000220FFF7ABFC00BFFFF7BCFC0346082BB0
:100C9C00FAD1084802F07AFB0F2000F0BFFC0346A3
:100CAC00002B01D000F022FC0020FFF7F5FC00BF68
:100CBC0080BD00BF00A24A0480B500AF1B4B1C4A8C
:100CCC001A601A4B1B4A5A60184B00229A60174B39
:100CDC000022DA60154B4FF480421A61134B00224C
:100CEC005A61124B00229A61104B0022DA610F4BB1
:100CFC0000221A620D4801F049F80346002B01D07E
:100D0C0000F0F4FB0021094801F084F90346002BA4
:100D1C0001D000F0EBFB0021044801F0B7F90346C9
:100D2C00002B01D000F0E2FB00BF80BD28000020AA
:100D3C00005C0040A086010080B590B000AF07F1C8
:100D4C00180328220021184602F054FB3B460022CF
:100D5C001A605A609A60DA601A615A614FF4004066
:100D6C00FFF712FD0420FFF7F7FC0220FFF7F4FC5D
:100D7C004FF480533B6002237B600323BB60002352
:100D8C00FB6000233B6106237B613B4619463448DC
:100D9C0001F014FF08233B6002237B600323BB603C
:100DAC000023FB6000233B6106237B613B46194615
:100DBC002C4801F003FF002205212B48FFF796FB7E
:100DCC00402205212848FFF795FA002205212648E4
:100DDC00FFF768FB4FF4807205212348FFF7AEFA4A
:100DEC00002205212048FFF7CDFA4FF4806205213F
:100DFC001D48FFF7EBFA4FF4006205211A48FFF784
:100E0C0009FB4FF4005205211748FFF727FB05217A
:100E1C001548FFF78FFB0023BB614FF48273FB6116
:100E2C004FF400633B6202237B620023BB624FF4EE
:100E3C000073FB6208233B6300237B630023BB63CB
:100E4C000A23FB6307F118031946084801F05AFFFF
:100E5C0000210648FFF758FD00BF4037BD4680BD56
:100E6C00000802400004024000600240003C0040C8
:100E7C0080B586B000AF3B1D00221A605A609A60A4
:100E8C00DA601A610120FFF797FC0023BB80002376
:100E9C00BB604FF6FF73FB6000233B6100237B615B
:100EAC003B1D19460A4801F0F1FF0948FFF73FFDC9
:100EBC0000210748FFF7D6FD00210548FFF7E7FDA5
:100ECC000348FFF7F7FD00BF1837BD4680BD00BFD4
:100EDC000000014080B594B000AF07F13C03002244
:100EEC001A605A609A60DA601A6107F11C032022BA
:100EFC000021184602F07EFA3B1D00221A605A604F
:100F0C009A60DA601A615A610220FFF73DFC40F2E8
:100F1C00E733BB8700233B64D1237B640023BB6492
:100F2C0007F13C0319461F4801F0B0FF1D48FFF7BD
:100F3C00FEFC01211B48FFF751FD6023FB610023E0
:100F4C003B6200237B626823BB620023FB6207F1D8
:100F5C001C031A460121134802F032F801211148F2
:100F6C00FFF7F6FC00210F48FFF791FD0D48FFF746
:100F7C00A1FD0220FFF7F0FB10237B600223BB6076
:100F8C000023FB6000233B6100237B610223BB61D8
:100F9C003B1D1946044801F011FE00BF5037BD46F9
:100FAC0080BD00BF000400400004024080B500AFCB
:100FBC004FF40010FFF7D0FBFFF712F903460022A5
:100FCC0000211846FFF762F9034619461020FFF777
:100FDC0033F91020FFF712F900BF80BD80B588B03F
:100FEC0000AF07F1180300221A605A603B4600223A
:100FFC001A605A609A60DA601A615A610420FFF72D
:10100C00ABFB2020FFF7A8FB8020FFF7A5FB0120FE
:10101C00FFF7A2FB0220FFF79FFB4020FFF79CFB92
:10102C001020FFF799FB0820FFF796FB1621B84814
:10103C00FFF7CAFD8021B748FFF7C6FD43F2B001A8
:10104C00B548FFF7C1FD4FF4C041B448FFF7BCFDF4
:10105C004FF63F033B6002237B600323BB600023FE
:10106C00FB6000233B610C237B613B461946AC487B
:10107C0001F0A4FD4FF460733B6002237B600023FE
:10108C00BB600023FB6000233B6105237B613B4677
:10109C001946A34801F092FD4FF480633B60022394
:1010AC007B600023BB600023FB6000233B610E23AD
:1010BC007B613B4619469A4801F080FD01233B6059
:1010CC0002237B600323BB600023FB6000233B6196
:1010DC000C237B613B4619468D4801F06FFD1623AE
:1010EC003B6001237B600023BB600023FB6000237B
:1010FC003B613B461946864801F060FD41F65803BA
:10110C003B6002237B600023BB600023FB60002359
:10111C003B610E237B613B4619467E4801F04EFD38
:10112C0080233B6001237B600023BB600023FB60BA
:10113C0000233B613B461946764801F03FFD0323F3
:10114C003B6002237B600023BB600023FB60002319
:10115C003B6109237B613B461946724801F02EFD29
:10116C0004233B6000237B6000233B613B46194614
:10117C006C4801F023FD48F233133B6002237B6083
:10118C000323BB600023FB6000233B610C237B61CA
:10119C003B461946614801F011FD4FF683733B60E5
:1011AC0002237B600323BB600023FB6000233B61B5
:1011BC000C237B613B4619465B4801F0FFFC4FF466
:1011CC0070633B6002237B600023BB600023FB60E9
:1011DC0000233B610E237B613B461946514801F0CD
:1011EC00EDFC4FF450433B6002237B600023BB605B
:1011FC000023FB6000233B610C237B613B461946BB
:10120C00484801F0DBFC4FF400533B6000237B604B
:10121C0000233B613B461946424801F0CFFC4CF29F
:10122C0003733B6002237B600323BB600023FB60E2
:10123C0000233B610C237B613B461946364801F089
:10124C00BDFC4FF400633B6000237B6000233B61DB
:10125C003B461946304801F0B1FC43F2B0033B6009
:10126C0001237B600023BB600023FB6000233B61F8
:10127C003B461946284801F0A1FC4FF40C633B6037
:10128C0002237B600023BB600023FB6000233B61D7
:10129C000E237B613B461946204801F08FFC4FF42E
:1012AC0098633B6002237B600023BB600023FB60E0
:1012BC0000233B610E237B613B461946144801F029
:1012CC007DFC4FF4C0633B6002237B600323BB6057
:1012DC000023FB6000233B6107237B613B461946DF
:1012EC000C4801F06BFC48233B6002237B6000231D
:1012FC00BB600023FB6000233B610E237B613B46FC
:10130C001946054801F05AFC4FF4A0533B600DE020
:10131C000008024000000240000C0240001802408D
:10132C0000140240000402400010024002237B60C3
:10133C000023BB600023FB6000233B6109237B611E
:10134C003B4619465A4801F039FC4FF4C0433B6008
:10135C0001237B600023BB600023FB6000233B6107
:10136C003B461946524801F029FC60233B6002239E
:10137C007B600323BB600023FB6000233B610C23D9
:10138C007B613B4619464B4801F018FC4FF4702129
:10139C000020FFF729FA4FF470010020FFF724FA20
:1013AC004FF070610020FFF71FFA43490220FFF74E
:1013BC001BFA42490020FFF717FA0123BB610123F6
:1013CC003B7701237B770123BB7707F11803184682
:1013DC0001F028FA0223BB6101233B7701237B77C1
:1013EC000123BB7707F11803184601F01BFA0423FD
:1013FC00BB6101233B7701237B770123BB7707F18B
:10140C001803184601F00EFA2023BB6101233B7729
:10141C0001237B770123BB7707F11803184601F0F2
:10142C0001FA4FF40043BB6101233B7701237B7727
:10143C000123BB7707F11803184601F0F3F90022DA
:10144C0001211F48FFF783FB002202211C48FFF7F4
:10145C007EFB002204211A48FFF779FB0022202191
:10146C001848FFF774FB00224FF400411448FFF7B3
:10147C006EFB002201211248FFF72CFB00220221F7
:10148C000F48FFF727FB002204210D48FFF722FB32
:10149C00002220210B48FFF71DFB00224FF40041D6
:1014AC000748FFF717FB00BF2037BD4680BD00BFC4
:1014BC0000180240000402400100F000030000F09C
:1014CC00000002400008024080B582B000AF786096
:1014DC007B681B68044A934201D100F0B5F900BF48
:1014EC000837BD4680BD00BF0010004080B400AF7F
:1014FC0072B600BFFEE7000080B483B000AF0023DB
:10150C007B60104B5B6C0F4A43F4804353640D4B70
:10151C005B6C03F480437B607B6800233B60094B6E
:10152C001B6C084A43F080531364064B1B6C03F08E
:10153C0080533B603B6800BF0C37BD465DF8047BB5
:10154C00704700BF0038024080B58AB000AF7860A9
:10155C0007F1140300221A605A609A60DA601A616B
:10156C007B681B68294A93424BD100233B61284B73
:10157C001B6B274A43F004031363254B1B6B03F0CF
:10158C0004033B613B690023FB60214B1B6B204A2E
:10159C0043F0010313631E4B1B6B03F00103FB6051
:1015AC00FB684FF400737B611223BB610123FB6169
:1015BC0000233B6204237B6207F114031946154890
:1015CC0000F038FA4FF480737B611223BB61012366
:1015DC00FB6100233B6204237B6207F11403194671
:1015EC000D4800F027FA0023BB60094B1B6C084A1E
:1015FC0043F400031364064B1B6C03F40003BB6041
:10160C00BB6800BF2837BD4680BD00BF005C0040F2
:10161C0000380240000802400000024080B58EB045
:10162C0000AF78600023FB620023BB620023FB60E9
:10163C00334B1B6C324A43F010031364304B1B6C5E
:10164C0003F01003FB60FB6807F1100207F11403B1
:10165C001146184600F07AFD3B6AFB62FB6A002BD0
:10166C0003D100F05FFD786304E000F05BFD0346FE
:10167C005B007B637B6B234AA2FB03239B0C013B2C
:10168C00BB62214B214A1A601F4B40F2E732DA60F1
:10169C001D4ABB6A53601C4B00221A611A4B002274
:1016AC009A60194B00229A61174800F081FD03469D
:1016BC0087F8333097F83330002B1BD1124800F0E9
:1016CC00D1FD034687F8333097F83330002B11D116
:1016DC00362000F0A1F97B680F2B08D8002279681E
:1016EC00362000F07DF90A4A7B68136002E0012382
:1016FC0087F8333097F8333018463837BD4680BDFD
:10170C000038024083DE1B437C00002000100040A8
:10171C000400002080B400AFFEE780B400AFFEE709
:10172C0080B400AFFEE780B400AFFEE780B400AF3A
:10173C00FEE780B400AF00BFBD465DF8047B704788
:10174C0080B400AF00BFBD465DF8047B704780B429
:10175C0000AF00BFBD465DF8047B704780B400AF9E
:10176C0000BFBD465DF8047B704780B400AF00BF7E
:10177C00BD465DF8047B704780B500AF024800F0B1
:10178C00E1FD00BF80BD00BF7C00002080B400AF35
:10179C00064BD3F88830054A43F47003C2F88830FE
:1017AC0000BFBD465DF8047B704700BF00ED00E054
:1017BC00DFF834D0FFF7EAFF0C480D490D4A00233F
:1017CC0002E0D458C4500433C4188C42F9D30A4AEA
:1017DC000A4C002301E013600432A242FBD301F057
:1017EC00E5FDFFF700FA7047000003200000002021
:1017FC000C000020503400080C000020C800002011
:10180C00FEE7000080B500AF0E4B1B680D4A43F499
:10181C00007313600B4B1B680A4A43F4806313601C
:10182C00084B1B68074A43F480731360032000F0D5
:10183C00CCF80F20FFF7F2FEFFF75EFE00231846F0
:10184C0080BD00BF003C024080B400AF064B1B784B
:10185C001A46064B1B681344044A136000BFBD466E
:10186C005DF8047B704700BF08000020C400002016
:10187C0080B485B000AF78607B6803F00703FB6031
:10188C000C4BDB68BB60BA684FF6FF031340BB60C0
:10189C00FB681A02BB68134343F0BF6343F4003385
:1018AC00BB60044ABB68D36000BF1437BD465DF80B
:1018BC00047B704700ED00E080B400AF044BDB68A4
:1018CC001B0A03F007031846BD465DF8047B7047FE
:1018DC0000ED00E080B483B000AF0346FB7197F9D4
:1018EC000730002B0BDBFB7903F01F02074997F93C
:1018FC0007305B09012000FA02F241F8232000BFF7
:10190C000C37BD465DF8047B704700BF00E100E07A
:10191C0080B483B000AF03463960FB7197F9073090
:10192C00002B0ADB3B68DAB20C4997F9073012013D
:10193C00D2B20B4483F800230AE03B68DAB20849C0
:10194C00FB7903F00F03043B1201D2B20B441A765D
:10195C0000BF0C37BD465DF8047B704700E100E02A
:10196C0000ED00E080B489B000AFF860B9607A6037
:10197C00FB6803F00703FB61FB69C3F10703042B4E
:10198C0028BF0423BB61FB690433062B02D9FB6916
:10199C00033B00E000237B614FF0FF32BB6902FA8E
:1019AC0003F3DA43BB681A407B699A404FF0FF316E
:1019BC007B6901FA03F3D9437B680B401343184648
:1019CC002437BD465DF8047B704780B582B000AF0C
:1019DC0078607868FFF74CFF00BF0837BD4680BDC4
:1019EC0080B586B000AF0346B9607A60FB73002304
:1019FC007B61FFF761FF78617A68B9687869FFF7F6
:101A0C00B1FF024697F90F3011461846FFF780FFD9
:101A1C0000BF1837BD4680BD80B582B000AF03460D
:101A2C00FB7197F907301846FFF754FF00BF0837D2
:101A3C00BD4680BD80B489B000AF786039600023AA
:101A4C007B6100233B610023BB610023FB6177E1D9
:101A5C000122FB6902FA03F37B613B681B687A691C
:101A6C0013403B613A697B699A4240F066813B685E
:101A7C005B6803F00303012B05D03B685B6803F044
:101A8C000303022B30D17B689B68BB61FB695B0055
:101A9C00032202FA03F3DB43BA691340BB613B68D0
:101AAC00DA68FB695B0002FA03F3BA691343BB61A2
:101ABC007B68BA699A607B685B68BB610122FB69D1
:101ACC0002FA03F3DB43BA691340BB613B685B6802
:101ADC001B0903F00102FB6902FA03F3BA69134311
:101AEC00BB617B68BA695A603B685B6803F00303AF
:101AFC00032B17D07B68DB68BB61FB695B0003229F
:101B0C0002FA03F3DB43BA691340BB613B689A6882
:101B1C00FB695B0002FA03F3BA691343BB617B6890
:101B2C00BA69DA603B685B6803F00303022B23D1CC
:101B3C00FB69DA087B68083253F82230BB61FB6919
:101B4C0003F007039B000F2202FA03F3DB43BA698D
:101B5C001340BB613B681A69FB6903F007039B00E8
:101B6C0002FA03F3BA691343BB61FB69DA087B68B9
:101B7C000832B96943F822107B681B68BB61FB69AA
:101B8C005B00032202FA03F3DB43BA691340BB6127
:101B9C003B685B6803F00302FB695B0002FA03F32A
:101BAC00BA691343BB617B68BA691A603B685B68AE
:101BBC0003F44033002B00F0C0800023FB60664B25
:101BCC005B6C654A43F480435364634B5B6C03F476
:101BDC008043FB60FB68614AFB699B08023352F847
:101BEC002330BB61FB6903F003039B000F2202FA55
:101BFC0003F3DB43BA691340BB617B68584A9342D9
:101C0C0037D07B68574A934231D07B68564A93420F
:101C1C002BD07B68554A934225D07B68544A93421B
:101C2C001FD07B68534A934219D07B68524A934227
:101C3C0013D07B68514A93420DD07B68504A934233
:101C4C0007D07B684F4A934201D1092312E00A2343
:101C5C0010E008230EE007230CE006230AE005231E
:101C6C0008E0042306E0032304E0022302E001233E
:101C7C0000E00023FA6902F0030292009340BA6973
:101C8C001343BB613549FB699B080233BA6941F8C0
:101C9C0023203D4B9B68BB613B69DB43BA69134016
:101CAC00BB613B685B6803F48013002B03D0BA69FB
:101CBC003B691343BB61344ABB699360324BDB68AD
:101CCC00BB613B69DB43BA691340BB613B685B6832
:101CDC0003F40013002B03D0BA693B691343BB61B7
:101CEC00294ABB69D360284B5B68BB613B69DB430A
:101CFC00BA691340BB613B685B6803F40033002B8B
:101D0C0003D0BA693B691343BB611F4ABB6953607B
:101D1C001D4B1B68BB613B69DB43BA691340BB615C
:101D2C003B685B6803F48033002B03D0BA693B69D2
:101D3C001343BB61144ABB691360FB690133FB613C
:101D4C00FB690F2B7FF684AE00BF00BF2437BD4666
:101D5C005DF8047B704700BF00380240003801403A
:101D6C00000002400004024000080240000C024047
:101D7C00001002400014024000180240001C0240F7
:101D8C000020024000240240003C014080B584B099
:101D9C0000AF78607B68002B01D101232BE17B68BD
:101DAC0093F83D30DBB2002B06D17B68002283F820
:101DBC003C207868FFF7C8FB7B68242283F83D2021
:101DCC007B681B681A687B681B6822F001021A602A
:101DDC007B681B681A687B681B6842F400421A60B7
:101DEC007B681B681A687B681B6822F400421A60C7
:101DFC0000F098F9F8607B685B68814A934207D8D9
:101E0C00FB68804A934294BF01230023DBB206E0B7
:101E1C00FB687D4A934294BF01230023DBB2002B65
:101E2C0001D00123E7E0FB68784AA2FB03239B0C5B
:101E3C00BB607B681B685B6823F03F017B681B6899
:101E4C00BA680A435A607B681B681B6A23F03F011F
:101E5C007B685B686A4A934202D8BB68013309E02D
:101E6C00BB684FF4967202FB03F3694AA2FB03238F
:101E7C009B0901337A6812680B4313627B681B68F9
:101E8C00DB6923F44F4222F0FF027B685B685C49FC
:101E9C008B4219D8FB68591E7B685B685B00B1FBF1
:101EAC00F3F3591C40F6FC730B40002B0AD0FB6873
:101EBC00591E7B685B685B00B1FBF3F30133C3F322
:101ECC000B0351E004234FE07B689B68002B11D17E
:101EDC00FB68581E7B6859680B465B000B44B0FBD3
:101EEC00F3F30133C3F30B03002B0CBF01230023CB
:101EFC00DBB212E0FB68581E7B6859680B469B00EE
:101F0C000B4499000B44B0FBF3F30133C3F30B0305
:101F1C00002B0CBF01230023DBB2002B01D00123CB
:101F2C0022E07B689B68002B0ED1FB68581E7B68F7
:101F3C0059680B465B000B44B0FBF3F30133C3F35E
:101F4C000B0343F400430FE0FB68581E7B68596891
:101F5C000B469B000B4499000B44B0FBF3F301338D
:101F6C00C3F30B0343F44043796809681343CB6113
:101F7C007B681B681B6823F0C0017B68DA697B688F
:101F8C001B6A1A437B681B680A431A607B681B68D0
:101F9C009B6823F4034323F0FF037A6811697A6882
:101FAC00D26811437A6812680B4393607B681B6894
:101FBC00DB6823F0FF017B685A697B689B691A43D5
:101FCC007B681B680A43DA607B681B681A687B684D
:101FDC001B6842F001021A607B6800221A647B685D
:101FEC00202283F83D207B6800221A637B68002244
:101FFC0083F83E20002318461037BD4680BD00BF35
:10200C00A08601007F841E00FF083D0083DE1B4379
:10201C00D34D621080B483B000AF786039607B68B8
:10202C0093F83D30DBB2202B29D17B68242283F836
:10203C003D207B681B681A687B681B6822F00102D4
:10204C001A607B681B685A6A7B681B6822F0100256
:10205C005A627B681B68596A7B681B683A680A433A
:10206C005A627B681B681A687B681B6842F0010225
:10207C001A607B68202283F83D20002300E00223B5
:10208C0018460C37BD465DF8047B704780B485B0AC
:10209C0000AF786039600023FB817B6893F83D309A
:1020AC00DBB2202B2AD17B68242283F83D207B686D
:1020BC001B681A687B681B6822F001021A607B6837
:1020CC001B685B6AFB81FB8923F00F03FB813B6878
:1020DC009AB2FB891343FB817B681B68FA895A62AD
:1020EC007B681B681A687B681B6842F001021A60E7
:1020FC007B68202283F83D20002300E00223184651
:10210C001437BD465DF8047B7047000080B400AF07
:10211C00034B1B681846BD465DF8047B704700BF37
:10212C000000002080B500AFFFF7F0FF0246054B22
:10213C009B689B0A03F007030349CB5C22FA03F369
:10214C00184680BD003802404034000880B483B08B
:10215C0000AF786039607B680F221A60124B9B6865
:10216C0003F003027B685A600F4B9B6803F0F0028C
:10217C007B689A600C4B9B6803F4E0527B68DA60D6
:10218C00094B9B68DB0803F4E0527B681A61074B30
:10219C001B6803F00F023B681A6000BF0C37BD468A
:1021AC005DF8047B704700BF00380240003C0240E1
:1021BC0080B582B000AF78607B68002B01D1012321
:1021CC0041E07B6893F83D30DBB2002B06D17B6895
:1021DC00002283F83C20786800F039F87B680222F2
:1021EC0083F83D207B681A687B68043319461046D7
:1021FC0000F0C0F97B68012283F846207B6801223D
:10220C0083F83E207B68012283F83F207B68012203
:10221C0083F840207B68012283F841207B680122EF
:10222C0083F842207B68012283F843207B680122DB
:10223C0083F844207B68012283F845207B680122C7
:10224C0083F83D20002318460837BD4680BD80B476
:10225C0083B000AF786000BF0C37BD465DF8047BDF
:10226C007047000080B485B000AF78607B6893F84D
:10227C003D30DBB2012B01D001234EE07B68022202
:10228C0083F83D207B681B68DA687B681B6842F02A
:10229C000102DA607B681B68234A934222D07B6878
:1022AC001B68B3F1804F1DD07B681B681F4A93429B
:1022BC0018D07B681B681E4A934213D07B681B683E
:1022CC001C4A93420ED07B681B681B4A934209D070
:1022DC007B681B68194A934204D07B681B68184AB8
:1022EC00934211D17B681B689B6803F00703FB606A
:1022FC00FB68062B10D07B681B681A687B681B6810
:10230C0042F001021A6007E07B681B681A687B6860
:10231C001B6842F001021A60002318461437BD46B0
:10232C005DF8047B704700BF0000014000040040D2
:10233C0000080040000C0040000401400040014037
:10234C000018004080B584B000AF78607B681B68D3
:10235C00DB68FB607B681B681B69BB60BB6803F0B8
:10236C000203002B20D0FB6803F00203002B1BD0D0
:10237C007B681B686FF002021A617B6801221A7776
:10238C007B681B689B6903F00303002B03D0786800
:10239C0000F0D2F805E0786800F0C4F8786800F036
:1023AC00D5F87B6800221A77BB6803F00403002B76
:1023BC0020D0FB6803F00403002B1BD07B681B6848
:1023CC006FF004021A617B6802221A777B681B6823
:1023DC009B6903F44073002B03D0786800F0ACF8D1
:1023EC0005E0786800F09EF8786800F0AFF87B683C
:1023FC0000221A77BB6803F00803002B20D0FB687F
:10240C0003F00803002B1BD07B681B686FF00802DD
:10241C001A617B6804221A777B681B68DB6903F0FE
:10242C000303002B03D0786800F086F805E0786889
:10243C0000F078F8786800F089F87B6800221A7749
:10244C00BB6803F01003002B20D0FB6803F01003D3
:10245C00002B1BD07B681B686FF010021A617B6825
:10246C0008221A777B681B68DB6903F44073002B26
:10247C0003D0786800F060F805E0786800F052F856
:10248C00786800F063F87B6800221A77BB6803F069
:10249C000103002B0CD0FB6803F00103002B07D0C9
:1024AC007B681B686FF001021A617868FFF70CF803
:1024BC00BB6803F08003002B0CD0FB6803F0800397
:1024CC00002B07D07B681B686FF080021A6178685C
:1024DC0000F006F9BB6803F04003002B0CD0FB683E
:1024EC0003F04003002B07D07B681B686FF04002A1
:1024FC001A61786800F034F8BB6803F02003002BF5
:10250C000CD0FB6803F02003002B07D07B681B6802
:10251C006FF020021A61786800F0D8F800BF10370D
:10252C00BD4680BD80B483B000AF786000BF0C376F
:10253C00BD465DF8047B704780B483B000AF786013
:10254C0000BF0C37BD465DF8047B704780B483B088
:10255C0000AF786000BF0C37BD465DF8047B704758
:10256C0080B483B000AF786000BF0C37BD465DF817
:10257C00047B704780B485B000AF786039607B68AD
:10258C001B68FB607B68464A934213D07B68B3F1AF
:10259C00804F0FD07B68434A93420BD07B68424AF2
:1025AC00934207D07B68414A934203D07B68404AF0
:1025BC00934208D1FB6823F07003FB603B685B68B7
:1025CC00FA681343FB607B68354A93422BD07B68D7
:1025DC00B3F1804F27D07B68324A934223D07B687B
:1025EC00314A93421FD07B68304A93421BD07B68A0
:1025FC002F4A934217D07B682E4A934213D07B68A4
:10260C002D4A93420FD07B682C4A93420BD07B68A7
:10261C002B4A934207D07B682A4A934203D07B68AB
:10262C00294A934208D1FB6823F44073FB603B6852
:10263C00DB68FA681343FB60FB6823F080023B689D
:10264C005B691343FB607B68FA681A603B689A68A5
:10265C007B68DA623B681A687B689A627B68104A0E
:10266C00934203D07B68124A934203D13B681A69A8
:10267C007B681A637B6801225A617B681B6903F0D3
:10268C000103012B05D17B681B6923F001027B68D8
:10269C001A6100BF1437BD465DF8047B704700BF5C
:1026AC00000001400004004000080040000C004005
:1026BC00000401400040014000440140004801403A
:1026CC0000180040001C00400020004080B483B083
:1026DC0000AF786000BF0C37BD465DF8047B7047D7
:1026EC0080B483B000AF786000BF0C37BD465DF896
:1026FC00047B704780B483B000AF7860054B1A68D8
:10270C0004497B6813430B6000BF0C37BD465DF872
:10271C00047B7047003C014080B483B000AF78600C
:10272C00064B1A687B68DB43044913400B6000BFFF
:10273C000C37BD465DF8047B704700BF003C014080
:10274C0080B483B000AF7860054B5A6804497B684D
:10275C0013434B6000BF0C37BD465DF8047B7047DC
:10276C00003C014080B483B000AF7860064B5A68DF
:10277C007B68DB43044913404B6000BF0C37BD46FC
:10278C005DF8047B704700BF003C014080B483B00F
:10279C0000AF7860054B9A6804497B6813438B60E3
:1027AC0000BF0C37BD465DF8047B7047003C014010
:1027BC0080B483B000AF7860064B9A687B68DB43CB
:1027CC00044913408B6000BF0C37BD465DF8047B99
:1027DC00704700BF003C014080B483B000AF78600C
:1027EC00054BDA6804497B681343CB6000BF0C3798
:1027FC00BD465DF8047B7047003C014080B483B05B
:10280C0000AF7860064BDA687B68DB430449134001
:10281C00CB6000BF0C37BD465DF8047B704700BF32
:10282C00003C014080B584B000AF78600023FB739E
:10283C007B681B79002B65D07B681B68002B6CD0E8
:10284C007B685B79022B1CD0022B25DC002B02D081
:10285C00012B0BD020E07B681B681846FFF782FF2A
:10286C007B681B681846FFF745FF18E07B681B6800
:10287C001846FFF751FF7B681B681846FFF760FF8F
:10288C000DE07B681B681846FFF734FF7B681B68FC
:10289C001846FFF755FF02E00123FB7300BF7B686E
:1028AC009B79002B39D07B689B79032B1CD0032B95
:1028BC0025DC012B02D0022B0BD020E07B681B689F
:1028CC001846FFF79BFF7B681B681846FFF75EFFF7
:1028DC0024E07B681B681846FFF76AFF7B681B685F
:1028EC001846FFF779FF19E07B681B681846FFF75D
:1028FC004DFF7B681B681846FFF76EFF0EE0012347
:10290C00FB730BE07B681B681846FFF705FF7B68C1
:10291C001B681846FFF726FF00E000BFFB7B18463C
:10292C001037BD4680BD80B48BB000AFF860B96085
:10293C007A60FB681A68BB687B617B6993FAA3F3C6
:10294C003B613B69BB61BB69002B01D1202303E0D8
:10295C00BB69B3FA83F3DBB25B00032101FA03F327
:10296C00DB431A40BB683B623B6A93FAA3F3FB61FF
:10297C00FB697B627B6A002B01D1202303E07B6A1D
:10298C00B3FA83F3DBB25B00796801FA03F31A4301
:10299C00FB681A6000BF2C37BD465DF8047B70479E
:1029AC0080B485B000AFF860B9607A60FB685A6893
:1029BC00BB68DB431A40BB68796801FB03F31A431D
:1029CC00FB685A6000BF1437BD465DF8047B704746
:1029DC0080B48BB000AFF860B9607A60FB689A681D
:1029EC00BB687B617B6993FAA3F33B613B69BB6179
:1029FC00BB69002B01D1202303E0BB69B3FA83F33D
:102A0C00DBB25B00032101FA03F3DB431A40BB6822
:102A1C003B623B6A93FAA3F3FB61FB697B627B6AC3
:102A2C00002B01D1202303E07B6AB3FA83F3DBB2E2
:102A3C005B00796801FA03F31A43FB689A6000BFE4
:102A4C002C37BD465DF8047B704780B48BB000AF6B
:102A5C00F860B9607A60FB68DA68BB687B617B6997
:102A6C0093FAA3F33B613B69BB61BB69002B01D1BA
:102A7C00202303E0BB69B3FA83F3DBB25B000321D1
:102A8C0001FA03F3DB431A40BB683B623B6A93FADF
:102A9C00A3F3FB61FB697B627B6A002B01D12023D2
:102AAC0003E07B6AB3FA83F3DBB25B00796801FA6B
:102ABC0003F31A43FB68DA6000BF2C37BD465DF8A0
:102ACC00047B704780B48BB000AFF860B9607A605B
:102ADC00FB681A6ABB687B617B6993FAA3F33B6161
:102AEC003B69BB61BB69002B01D1202303E0BB69AF
:102AFC00B3FA83F3DBB29B000F2101FA03F3DB4340
:102B0C001A40BB683B623B6A93FAA3F3FB61FB6917
:102B1C007B627B6A002B01D1202303E07B6AB3FA32
:102B2C0083F3DBB29B00796801FA03F31A43FB6869
:102B3C001A6200BF2C37BD465DF8047B704780B429
:102B4C008BB000AFF860B9607A60FB685A6ABB68FA
:102B5C001B0A7B617B6993FAA3F33B613B69BB6105
:102B6C00BB69002B01D1202303E0BB69B3FA83F3CB
:102B7C00DBB29B000F2101FA03F3DB431A40BB6865
:102B8C001B0A3B623B6A93FAA3F3FB61FB697B6212
:102B9C007B6A002B01D1202303E07B6AB3FA83F319
:102BAC00DBB29B00796801FA03F31A43FB685A62A3
:102BBC0000BF2C37BD465DF8047B704780B58AB0EA
:102BCC0000AF7860396000237B6200233B623B6876
:102BDC001B68BB61BB6993FAA3F37B617B69FB61E7
:102BEC00FB69002B01D1202303E0FB69B3FA83F3CB
:102BFC00DBB27B6257E03B681A6801217B6A01FA01
:102C0C0003F313403B623B6A002B49D03B685B6883
:102C1C00012B03D03B685B68022B0DD13B689B6892
:102C2C001A46396A7868FFF7D3FE3B68DB681A46A8
:102C3C00396A7868FFF7B4FE3B681B691A46396A33
:102C4C007868FFF702FF3B685B68022B21D13B6A77
:102C5C00FB60FB6893FAA3F3BB60BB683B613B6909
:102C6C00002B01D1202303E03B69B3FA83F3DBB2E1
:102C7C00072B07D83B685B691A46396A7868FFF7F7
:102C8C0021FF06E03B685B691A46396A7868FFF7F2
:102C9C0056FF3B685B681A46396A7868FFF743FE53
:102CAC007B6A01337B623B681A687B6A22FA03F306
:102CBC00002BA0D1002318462837BD4680BD80B418
:102CCC0083B000AF78607B681B6803F04003402B37
:102CDC0001D1012300E0002318460C37BD465DF8F6
:102CEC00047B704780B483B000AF786039603B6878
:102CFC009BB21A467B681A6100BF0C37BD465DF863
:102D0C00047B704780B584B000AF786039600123D4
:102D1C00FB737868FFF7D3FF0346002B39D17B6830
:102D2C001B6823F47F4323F0BF033A6811683A68A9
:102D3C00526811433A68926811433A68D268114359
:102D4C003A68126911433A68526911433A689269B8
:102D5C0011433A68D26911433A68126A0A431A431A
:102D6C007B681A607B685B6823F004023B685B69D4
:102D7C001B0C1A437B685A603B681B6AB3F5005FF7
:102D8C0005D13B685B6A19467868FFF7ABFF0023F7
:102D9C00FB737B68DB6923F400627B68DA61FB7B85
:102DAC0018461037BD4680BD80B483B000AF786044
:102DBC0039607B683A689A6200BF0C37BD465DF893
:102DCC00047B704780B483B000AF786039607B6857
:102DDC003A68DA6200BF0C37BD465DF8047B704779
:102DEC0080B483B000AF786039607B683A681A634E
:102DFC0000BF0C37BD465DF8047B704780B483B0D0
:102E0C0000AF786039607B683A685A6300BF0C3752
:102E1C00BD465DF8047B704780B483B000AF78602A
:102E2C0039607B683A689A6300BF0C37BD465DF821
:102E3C00047B704780B483B000AF786039607B68E6
:102E4C003A68DA6300BF0C37BD465DF8047B704707
:102E5C0080B483B000AF786039607B683A681A64DC
:102E6C0000BF0C37BD465DF8047B704780B483B05F
:102E7C0000AF78607B685B6943F001027B685A6144
:102E8C0000BF0C37BD465DF8047B704780B584B03D
:102E9C0000AF786039607B681B68FB607B683D4ADB
:102EAC00934213D07B68B3F1804F0FD07B683A4AC2
:102EBC0093420BD07B68394A934207D07B68384ADF
:102ECC00934203D07B68374A934206D1FB6823F0C8
:102EDC0070023B685B681343FB607B682D4A93422E
:102EEC002BD07B68B3F1804F27D07B682A4A934262
:102EFC0023D07B68294A93421FD07B68284A93428F
:102F0C001BD07B68274A934217D07B68264A934292
:102F1C0013D07B68254A93420FD07B68244A934296
:102F2C000BD07B68234A934207D07B68224A93429A
:102F3C0003D07B68214A934206D1FB6823F440728C
:102F4C003B68DB681343FB607B68FA681A603B687C
:102F5C009B6819467868FFF735FF3B681B88194654
:102F6C007868FFF721FF7B680A4A934203D07B689D
:102F7C000C4A934205D13B681B6919467868FFF7E8
:102F8C002FFF7868FFF772FF002318461037BD46F5
:102F9C0080BD00BF0000014000040040000800405C
:102FAC00000C00400004014000400140004401407E
:102FBC000048014000180040001C00400020004068
:102FCC0080B586B000AFF860B9607A600123FB75FC
:102FDC00BB68B3F5805F27D0BB68B3F5805F2AD898
:102FEC00BB68B3F5807F18D0BB68B3F5807F22D85F
:102FFC00BB68012B03D0BB68102B07D01BE0796892
:10300C00F86800F01FF80346FB7515E07968F8685E
:10301C0000F084F80346FB750EE07968F86800F060
:10302C00EDF80346FB7507E07968F86800F056F98F
:10303C000346FB7500E000BFFB7D18461837BD4604
:10304C0080BD000080B586B000AF786039607B68C9
:10305C001B6A23F001027B681A627B681B6A7B6126
:10306C007B685B683B617B689B69FB60FB6823F05A
:10307C000303FB60FB6823F070023B681B6813437F
:10308C00FB607B6923F002023B681B6913437B6185
:10309C007B6923F001023B685B6813437B617B68AF
:1030AC001C4A934203D07B681B4A93421ED17B6916
:1030BC0023F008023B685B699B0013437B617B69CF
:1030CC0023F004023B689B689B0013437B613B69C4
:1030DC0023F480723B689B6913433B613B6923F487
:1030EC0000723B68DB695B0013433B617B683A69A8
:1030FC005A607B68FA689A613B68DB6819467868A5
:10310C00FFF77CFE7B687A691A6200231846183731
:10311C00BD4680BD000001400004014080B586B072
:10312C0000AF786039607B681B6A23F010027B6803
:10313C001A627B681B6A7B617B685B683B617B689E
:10314C009B69FB60FB6823F44073FB60FB6823F412
:10315C00E0423B681B681B021343FB607B6923F056
:10316C0020023B681B691B0113437B617B6923F0C5
:10317C0010023B685B681B0113437B617B681D4A33
:10318C00934203D07B681C4A93421FD17B6923F086
:10319C0080023B685B699B0113437B617B6923F075
:1031AC0040023B689B689B0113437B613B6923F4A2
:1031BC0080623B689B699B0013433B613B6923F432
:1031CC0000623B68DB69DB0013433B617B683A6957
:1031DC005A607B68FA689A613B68DB6819467868C4
:1031EC00FFF71AFE7B687A691A62002318461837B3
:1031FC00BD4680BD000001400004014080B586B092
:10320C0000AF786039607B681B6A23F480727B683E
:10321C001A627B681B6A7B617B685B683B617B68BD
:10322C00DB69FB60FB6823F00303FB60FB6823F0A6
:10323C0070023B681B681343FB607B6923F40072CC
:10324C003B681B691B0213437B617B6923F480720F
:10325C003B685B681B0213437B617B681D4A93428E
:10326C0003D07B681C4A93421FD17B6923F4006214
:10327C003B685B699B0213437B617B6923F480622F
:10328C003B689B689B0213437B613B6923F4805230
:10329C003B689B691B0113433B613B6923F4005260
:1032AC003B68DB695B0113433B617B683A695A609D
:1032BC007B68FA68DA613B68DB6819467868FFF767
:1032CC00B9FD7B687A691A62002318461837BD4627
:1032DC0080BD00BF000001400004014080B586B0F5
:1032EC0000AF786039607B681B6A23F480527B687E
:1032FC001A627B681B6A3B617B685B687B617B68DD
:10330C00DB69FB60FB6823F44073FB60FB6823F410
:10331C00E0423B681B681B021343FB603B6923F4D0
:10332C0000523B681B691B0313433B613B6923F44D
:10333C0080523B685B681B0313433B617B68114AFB
:10334C00934203D07B68104A934207D17B6923F4E4
:10335C0080423B689B699B0113437B617B687A6964
:10336C005A607B68FA68DA613B68DB6819467868F2
:10337C00FFF76EFD7B683A691A620023184618370E
:10338C00BD4680BD000001400004014080B483B004
:10339C0000AF7860044A7B68136000BF0C37BD46F1
:1033AC005DF8047B704700BF0000002070B50D4D28
:1033BC000D4C641BA4100026A64209D10B4D0C4CDD
:1033CC0000F020F8641BA4100026A64205D170BDA5
:1033DC0055F8043B98470136EEE755F8043B9847FF
:1033EC000136F2E748340008483400084834000835
:1033FC004C34000802440346934200D1704703F852
:10340C00011BF9E7F8B500BFF8BC08BC9E46704735
:0C341C00F8B500BFF8BC08BC9E46704725
:10342800102840587088A0B8000000000404040068
:10343800000008000000080000000000010203046A
:04344800D1010008A6
:04344C00AD010008C6
:0C3450000024F400100000000100000047
:04000005080017BD1B
:00000001FF
