:020000040800F2
:1000000000000320812C0008D12B0008D72B00080A
:10001000DD2B0008E32B0008E92B0008000000009E
:10002000000000000000000000000000EF2B0008AE
:10003000FD2B0008000000000B2C0008192C000804
:10004000D12C0008D12C0008D12C0008D12C00089C
:10005000D12C0008D12C0008D12C0008D12C00088C
:10006000D12C0008D12C0008D12C0008D12C00087C
:10007000D12C0008D12C0008D12C0008D12C00086C
:10008000352C0008D12C0008D12C0008D12C0008F8
:10009000D12C0008D12C0008D12C0008D12C00084C
:1000A000D12C0008D12C0008D12C0008D12C00083C
:1000B000D12C0008D12C0008D12C0008D12C00082C
:1000C000D12C0008D12C0008D12C0008D12C00081C
:1000D000D12C0008D12C0008D12C0008D12C00080C
:1000E000D12C0008D12C0008D12C0008D12C0008FC
:1000F000D12C0008D12C0008D12C0008D12C0008EC
:10010000D12C0008D12C0008D12C0008D12C0008DB
:10011000D12C0008D12C0008492C0008D12C000853
:10012000D12C0008D12C0008D12C0008D12C0008BB
:10013000D12C0008D12C0008D12C0008D12C0008AB
:10014000D12C0008D12C0008D12C0008D12C00089B
:10015000D12C0008D12C0008D12C0008D12C00088B
:10016000D12C0008D12C0008D12C0008D12C00087B
:10017000D12C0008D12C0008D12C00080000000070
:10018000D12C0008D12C0008D12C0008D12C00085B
:10019000D12C0008D12C0008D12C0008D12C00084B
:0C01A000D12C0008D12C0008D12C000844
:1001AC0010B5054C237833B9044B13B10448AFF3A5
:1001BC0000800123237010BDAC0000200000000063
:1001CC002049000808B5034B1BB103490348AFF3A2
:1001DC00008008BD00000000B0000020204900088D
:1001EC0080B485B000AF78600B46FB707B680C3335
:1001FC00FB60FB68FA781A7000BF1437BD465DF8D7
:10020C00047B704780B485B000AF78600B467B8070
:10021C007B680C33FB60FB687A881A8000BF14374C
:10022C00BD465DF8047B704780B48BB000AF78603E
:10023C003960574A07F10C0392E8030083E8030086
:10024C003B68032B02D97B680C3301E07B680833D5
:10025C003B6207F10C023B6813441B781A463F23A0
:10026C0093401A463B6A1A600023FB610023BB6172
:10027C00484B1B687B6281E07B6A9B6ABB617B6A33
:10028C00DB6AFB61BA697B689A4274D1FA693B6894
:10029C009A4270D17B6A1B6C002B0CD07B6A1B6C56
:1002AC005B697A6AB2F844201340002B03D07B6A56
:1002BC001B6F7B6262E0384A3B6813441B781A461A
:1002CC007B6813447B617B691B6823F001027B69AB
:1002DC001A6000BF7B691B6803F00103002BF9D186
:1002EC007B6A1B6E002B1ED07B6A1B6EB3F5803FA6
:1002FC000BD37B694FF6FF725A607B6A1B6EA3F5BA
:10030C007F43FF3B7A6A136606E07B6A1A6E7B6951
:10031C005A607B6A00221A667B691B6843F00102F3
:10032C007B691A602EE07B6A5B6A5A687B6A5B6A3F
:10033C0022F002025A6000BF7B6A5B6A9B6803F082
:10034C008003002BF8D17B6A93F86530002B09D120
:10035C007B6A1B6C002B05D07B6AB3F844207B6A4C
:10036C001B6C9A617B6A5B6A1A687B6A5B6A22F017
:10037C0040021A6006E07B6A1B6F7B627B6A002B73
:10038C007FF47AAF2C37BD465DF8047B704700BF15
:10039C0038490008C80000208849000880B584B09E
:1003AC0000AF78600B46FB701346BB707B685B6AD2
:1003BC00FB60BB78002B07D17B689B8F1A467B6850
:1003CC009B6B12049A6104E07B689A8F7B689B6B31
:1003DC009A61FB781946F868FFF702FF00BFFB68CB
:1003EC009B6803F00203002BF9D000BFFB689B68ED
:1003FC0003F08003002BF9D100BF00BF1037BD46BE
:10040C0080BD80B582B000AF78607B681B6B002B21
:10041C0011D07B689B8E1A467B681B6B12049A6109
:10042C00192004F015FA7B689A8E7B681B6B9A6115
:10043C00192004F00DFA00BF0837BD4680BD80B509
:10044C0084B000AF786039607B685B6ABB6000BFCA
:10045C00786800F016FA0346012BF9D07B6893F804
:10046C006530002B0BD17B681B6C002B07D07B6895
:10047C00B3F844301A467B681B6C12049A61BB6853
:10048C001B6823F42C42BB681A60BB681B6843F0E2
:10049C004002BB681A603B685A1C3A601B78022BFE
:1004AC0039D0022B3FDC002B02D0012B1ED03AE0BE
:1004BC003B685A1C3A601B78002219467868FFF793
:1004CC006DFF3B685A1C3A601B78FB6008E03B6888
:1004DC005A1C3A601B78012219467868FFF75EFFB8
:1004EC00FB685A1EFA60002BF1D132E03B685A1CB3
:1004FC003A601B78FB6008E03B685A1C3A601B783A
:10050C00012219467868FFF749FFFB685A1EFA600A
:10051C00002BF1D11DE03B685A1C3A601B78184641
:10052C0004F096F915E07B6893F86530002B09D13F
:10053C007B681B6C002B05D07B68B3F844207B6870
:10054C001B6C9A61BB681B6823F04002BB681A6085
:10055C0000E0A0E71037BD4680BD0000B0B588B004
:10056C0000AFF860B96011461A460B46FB80134683
:10057C00BB80BB68002B01D1002351E17422002108
:10058C00B86804F0BFF90023BB61BB6897F858202A
:10059C0083F84820BB687A6D03F1240415460FCD0F
:1005AC000FC40FCD0FC42B682360BB682833BB610D
:1005BC00BB691B68002B56D0BB691B681946BB690D
:1005CC005B688B4AD35C0B447B617B691B6823F0B3
:1005DC0001027B691A6000BF7B691B6803F0010391
:1005EC00002BF9D1BB6893F84830012B0AD17B69F9
:1005FC001B6823F4F0427B691A607B691A687B697B
:10060C001A6010E0BB6893F84830022B0BD17B6961
:10061C001B6823F4F0427B691A607B691B6843F406
:10062C0020527B691A607B691B6823F4802323F0BA
:10063C000E037A6913607B695B6923F080027B6926
:10064C005A617B691B6843F010027B691A607B69F5
:10065C001B6823F400727B691A607B691B6843F486
:10066C0080627B691A60BA88FB88934238BF134654
:10067C007B82BA88FB88934228BF13463B8297F84B
:10068C004030002B03D097F84030022B2FD1BB68A1
:10069C003A8A9A80BB687A8ADA80BB683A8E1A806A
:1006AC00BB68BA8E5A8097F84030002B06D1BB68D5
:1006BC003A8F5A81BB68BA8F9A8155E0BB681A8809
:1006CC00BB689B88D31A9AB23B8FD31A9BB21AB2CF
:1006DC00BB685A81BB685A88BB68DB88D31A9AB24C
:1006EC00BB8FD31A9BB21AB2BB689A813CE097F8C5
:1006FC004030012B03D097F84030032B2FD1BB682F
:10070C007A8A9A80BB683A8ADA80BB68BA8E1A8079
:10071C00BB683A8E5A8097F84030012B0FD1BB68DA
:10072C00BA8F5A81BB685A88BB68DB88D31A9AB2D5
:10073C003B8FD31A9BB21AB2BB689A8114E0BB6888
:10074C001A88BB689B88D31A9AB2BB8FD31A9BB2F8
:10075C001AB2BB685A81BB683A8F9A8104E0B868B8
:10076C0000F062F800235BE0BB681A88BB689B88CA
:10077C009A420BD3BB685A88BB68DB889A4205D374
:10078C007B6C002B02D0BB6C002B04D1B86800F042
:10079C004BF8002344E0BB6897F840201A72BB6802
:1007AC007A6C5A61BB68BA6C9A61BB68FA6CDA6194
:1007BC00BB683A6D1A62BB6803F14C0407F15C0329
:1007CC000FCB84E80F00BB68002283F86420BB6861
:1007DC0000221A67BB680022DA66BB680022DA6561
:1007EC00FB68002B01D1BB681AE0FB68FB610CE0D5
:1007FC0088490008FB691B6FFB61BB6893F8643088
:10080C000133DAB2BB6883F86420FB691B6F002BE1
:10081C00F0D1BB68FA69DA66FB69BA681A67BB681B
:10082C0018462037BD46B0BD80B582B000AF7860A9
:10083C007B68002B04D074220021786804F062F8E5
:10084C0000BF0837BD4680BD80B582B000AF786070
:10085C007868FFF7D6FD7B685B697A68127A104678
:10086C009847034619467868FFF7E9FD7B6893F8CB
:10087C005A301946786800F019F800BF0837BD46A1
:10088C0080BD80B483B000AF78607B685B6A1B6806
:10089C0003F04003002B01D0012300E00023184695
:1008AC000C37BD465DF8047B7047000080B485B002
:1008BC0000AF78600B46FB70FB78642B01D9642386
:1008CC00FB707B68FA7883F85A207B68DB6C002B12
:1008DC004BD07B68DB6CDB6AFA7802FB03F3314AA2
:1008EC00A2FB03235B09FB607B681B6DB3F5805F88
:1008FC001CD0B3F5805F1ED8B3F5807F11D0B3F553
:10090C00807F18D8012B02D0102B05D013E07B6808
:10091C00DB6CFA685A630FE07B68DB6CFA689A63ED
:10092C000AE07B68DB6CFA68DA6305E07B68DB6CF9
:10093C00FA681A6400E000BF7B68DB6C1B6803F08C
:10094C000103002B27D17B68DB6C196A7B681A6D5D
:10095C007B68DB6C0A431A627B68DB6C1A687B6809
:10096C00DB6C42F001021A6015E07B685B6D002BBA
:10097C0011D0FB78002B06D07B68B3F858207B682D
:10098C005B6D9A6107E07B68B3F858301A467B6858
:10099C005B6D12049A6100BF1437BD465DF8047B91
:1009AC00704700BF1F85EB51B0B584B000AFF86045
:1009BC00084611461A4603467B810B463B8113467B
:1009CC00FB80FB689C69FB68B3F90A309AB27B899F
:1009DC00134498B2FB68B3F90C309AB23B891344B8
:1009EC0099B2FB68B3F90A309AB2FB8813449DB2F2
:1009FC00FB68B3F90C309AB23B8C13449BB22A4679
:100A0C00A04703461946F868FFF719FD00BF1037D9
:100A1C00BD46B0BD80B586B000AFF860B9607A60F5
:100A2C00FB685B6A3B6100BFF868FFF72AFF03466F
:100A3C00012BF9D0FB6893F86530002B0BD1FB68C8
:100A4C001B6C002B07D0FB68B3F844301A46FB68CC
:100A5C001B6C12049A61FB6893F86630002B04D16E
:100A6C00FB689A8FFB689B6B9A613B691B6823F44C
:100A7C002C423B691A60FB6893F84830022B05D175
:100A8C003B691B6843F400623B691A603B691B6855
:100A9C0043F040023B691A60FB6893F84830022B24
:100AAC0015D10EE0BB689A1CBA601B8819463869D0
:100ABC00FFF7A8FB00BF3B699B6803F00203002B08
:100ACC00F9D07B685A1E7A60002BEBD119E07B6859
:100ADC005B007B60BB687B610EE07B695A1C7A61B2
:100AEC001B7819463869FFF77BFB00BF3B699B6895
:100AFC0003F00203002BF9D07B685A1E7A60002B9E
:100B0C00EBD100BF3B699B6803F08003002BF9D14C
:100B1C00FB6893F86530002B09D1FB681B6C002B2C
:100B2C0005D0FB68B3F84420FB681B6C9A613B69E9
:100B3C001B6823F040023B691A6000BF1837BD46A2
:100B4C0080BD000080B590B002AFF8600846114639
:100B5C001A4603467B810B463B811346FB807A8900
:100B6C00FB889A4205D97B897B86FB887B817B8EAF
:100B7C00FB803A89B7F840309A4207D93B897B868B
:100B8C00B7F840303B817B8EA7F84030FB689B88E0
:100B9C007A899A4280F03F81FB68DB883A899A42D5
:100BAC0080F03981FB689B88FA889A4203D3FB68F2
:100BBC009B88013BFB80FB68DB88B7F840209A429E
:100BCC0004D3FB68DB88013BA7F84030FA887B89AB
:100BDC00D31A0133B7F840103A898A1A013202FB52
:100BEC0003F37B63F8883A897989B7F8403000932E
:100BFC000346F868FFF7D8FEFB6893F86530002BC6
:100C0C000BD1FB681B6C002B07D0FB68B3F844308E
:100C1C001A46FB681B6C12049A61FB6893F86630E9
:100C2C00002B04D1FB689A8FFB689B6B9A61796CE3
:100C3C00F86800F05DFB03461A46FB68A3F86820D1
:100C4C00FB68B3F868303B86FB685B6AFB62FB6A47
:100C5C001B6823F42C42FB6A1A60FB6893F848303B
:100C6C00022B05D1FB6A1B6843F40062FB6A1A6015
:100C7C00FB6A1B6843F04002FB6A1A60FB689B6AC4
:100C8C00002B68D0FB6893F84830012B02D17B6BAA
:100C9C005B007B63FB689B6A7B62FB68DB6A3B6285
:100CAC005F4A3B6A13441B781A467B6A1344FB6108
:100CBC005C4A07F1100392E8030083E803003B6AE7
:100CCC00032B02D97B6A0C3301E07B6A0833BB61CE
:100CDC0007F110023B6A13441B781A463F239340DA
:100CEC001A46BB691A60FB6A5B6843F00202FB6A36
:100CFC005A60FB6A0C331A46FB699A60FB686833CE
:100D0C001A46FB69DA60FB691B6823F40072FB6905
:100D1C001A60FB691B6823F48062FB691A607B6BA9
:100D2C00B3F5803F06D2FB697A6B5A60FB680022F0
:100D3C001A6609E0FB694FF6FF725A607B6BA3F5EC
:100D4C007F43FF3BFA681366FB691B6843F00102A3
:100D5C00FB691A6060E0FB6893F84830022B12D1F3
:100D6C000BE03B8E1946F86AFFF74CFA00BFFB6AA2
:100D7C009B6803F00203002BF9D07B6B5A1E7A633D
:100D8C00002BEED12AE03B8E87F82B303B8E1B0AD2
:100D9C009BB287F82A301CE097F82B301946F86A7A
:100DAC00FFF71EFA00BFFB6A9B6803F00203002BDF
:100DBC00F9D097F82A301946F86AFFF711FA00BFF4
:100DCC00FB6A9B6803F00203002BF9D07B6B013BA1
:100DDC007B637B6B5A1E7A63002BDDD100BFFB6AF1
:100DEC009B6803F08003002BF9D1FB6893F8653006
:100DFC00002B09D1FB681B6C002B05D0FB68B3F8EA
:100E0C004420FB681B6C9A61FB6A1B6823F0400250
:100E1C00FB6A1A6000E000BF3837BD4680BD00BFDA
:100E2C00884900083849000880B584B002AF786062
:100E3C0039607B689B88013B99B27B68DB88013BFE
:100E4C009BB23A68019200930B460022002178680D
:100E5C00FFF778FE00BF0837BD4680BD80B588B06F
:100E6C0002AFF8607B600B467B8113463B81FB68CD
:100E7C009B881A46B7F90A309A4225DDFB68DB8855
:100E8C001A46B7F908309A421EDDB7F90A30002B22
:100E9C001ADBB7F90830002B16DB79893A89788987
:100EAC003B8900930346F868FFF77EFD7968F86884
:100EBC0000F01EFA0346FB8207F1160301221946C5
:100ECC00F868FFF7A7FD00E000BF1837BD4680BDEE
:100EDC0080B590B002AFF860084611461A4603463A
:100EEC007B810B463B811346FB710023FB623B6C01
:100EFC005B68BB62796CF86800F0FAF90346FB8416
:100F0C00B96CF86800F0F4F90346BB843B6C1B7AAF
:100F1C00FA799A420AD33B6C5B7AFA799A4205D8F1
:100F2C003B6C1B7AFA79D31ADBB200E00023FB711D
:100F3C003B6C1B78013BDB1001333B623B6A042B9F
:100F4C0000F34C813B6ADB00013B012202FA03F304
:100F5C00FB61FB793A6A02FB03F33A6C527802FBB1
:100F6C0003F31A46BB6A1344BB62FB685B6ABB6142
:100F7C0097F84C30002B40F0D7803B6C1B789AB222
:100F8C007B8913449BB2013B98B23B6C5B789AB261
:100F9C003B8913449BB2013B9BB23A8979890093FC
:100FAC000346F868FFF700FDFB681B6C002B07D0AD
:100FBC00FB68B3F844301A46FB681B6C12049A6148
:100FCC00FB689A8FFB689B6B9A61BB691B6823F06B
:100FDC004002BB691A60BB691B6823F42C42BB69D5
:100FEC001A60FB6893F84830022B05D1BB691B686B
:100FFC0043F40062BB691A60BB691B6843F0400292
:10100C00BB691A6000237B6369E03B6A012B03D147
:10101C00BB6A1B78FB621BE03B6A022B03D1BB6AE9
:10102C001B88FB6214E03B6A032B0ED1BB6A1B7856
:10103C001A46BB6A01331B781B021A43BB6A023384
:10104C001B781B041343FB6202E0BB6A1B68FB6248
:10105C003B6ABA6A1344BB6200233B6336E0FA6A0C
:10106C003B6B9A40FB691340002B01D0FB8C00E0DA
:10107C00BB8CFB8200BFBB699B6803F00203002B97
:10108C00F9D0FB6893F84830022B05D1FB8A19463E
:10109C00B869FFF7B7F816E0FB8A7B75FB8A1B0A69
:1010AC009BB23B757B7D1946B869FFF799F800BF79
:1010BC00BB699B6803F00203002BF9D03B7D1946FA
:1010CC00B869FFF78DF83B6B01333B633B6C1B78C6
:1010DC001A463B6B9342C2DB7B6B01337B633B6CED
:1010EC005B781A467B6B93428FDB00BFBB699B68B6
:1010FC0003F00203002BF9D000BFBB699B6803F01F
:10110C008003002BF9D1BB691B6823F04002BB693B
:10111C001A60FB681B6C002B61D0FB68B3F8442091
:10112C00FB681B6C9A615AE000237B634FE03B6ABF
:10113C00012B03D1BB6A1B78FB621EE03B6A022BBE
:10114C0003D1BB6A1B88FB6217E03B6A032B0ED1F1
:10115C00BB6A1B781A46BB6A01331B781B021A4305
:10116C00BB6A02331B781B041343FB6205E03B6A2A
:10117C00042B02D1BB6A1B68FB623B6ABA6A13443C
:10118C00BB6200233B6319E0FA6A3B6B9A40FB6934
:10119C001340002B0FD03B6B9AB27B8913449BB24C
:1011AC0019B27B6B9AB23B8913449BB21AB27B6C1B
:1011BC00F868FFF753FE3B6B01333B633B6C1B78CA
:1011CC001A463B6B9342DFDB7B6B01337B633B6CDF
:1011DC005B781A467B6B9342A9DB00E000BF383783
:1011EC00BD4680BD80B588B004AFF8607B600B460F
:1011FC007B8113463B8131E07B89BA6912781344B9
:10120C00FA68928893420FDD00237B81BB695B787F
:10121C009AB23B8913443B813B89BA695278134497
:10122C00FA68D28893421EDC7B6818783A897989EF
:10123C0097F8243003933B6A0293FB690193BB69D3
:10124C0000930346F868FFF743FEBB691B789AB21C
:10125C007B8913447B817B6801337B607B681B78C3
:10126C00002BC9D100E000BFFB687A89DA81FB68EA
:10127C003A891A8200BF1037BD4680BD80B485B054
:10128C0000AF7860084611461A460346FB700B46C1
:10129C00BB7013467B70FB781B021BB223F4FF63FD
:1012AC0023F007031AB2BB78DB001BB203F4FC6318
:1012BC001BB213431AB27B78DB08DBB21BB21343AD
:1012CC001BB2FB817B6893F84830012B09D1FB8959
:1012DC001B0A9BB21AB2FB891B021BB213431BB233
:1012EC00FB81FB8918461437BD465DF8047B7047BB
:1012FC0080B584B000AF786039603B681B0CFB7321
:10130C003B681B0ABB733B687B737B7BBA7BF97BAB
:10131C007868FFF7B3FF034618461037BD4680BD0B
:10132C0090B484B000AF0446084611461A462346D2
:10133C00FB710346BB710B467B7113463B7100235B
:10134C00FB73FB79002B03D0FB7B43F04003FB7357
:10135C00BB79002B03D0FB7B63F07F03FB737B79A2
:10136C00002B03D0FB7B43F02003FB733B79002B5A
:10137C0003D0FB7B43F00803FB733B7E002B03D0B5
:10138C00FB7B43F01003FB733B7F002B03D0FB7BF9
:10139C0043F00403FB73FB7B18461037BD4690BC2F
:1013AC007047000080B586B002AF0346FB71002386
:1013BC00FB73FB79002B0CD10023019300230093CA
:1013CC000023002200210020FFF7AAFF0346FB7335
:1013DC002EE0FB79022B0CD1012301930123009306
:1013EC000023002201210120FFF79AFF0346FB7323
:1013FC001EE0FB79012B0CD10123019300230093F8
:10140C000023012200210120FFF78AFF0346FB7312
:10141C000EE0FB79032B0BD10023019301230093E6
:10142C000023012201210020FFF77AFF0346FB7302
:10143C00034AFB7BD375024B18461037BD4680BD63
:10144C000C00002090B482B000AF04460846114650
:10145C001A462346FB800346BB800B467B80134613
:10146C003B80FB881B0A9BB2DAB2154BDA70FB8807
:10147C00DAB2134B1A717B881B0A9BB2DAB2104B8F
:10148C005A717B88DAB20E4B9A71BB881B0A9BB2DD
:10149C00DAB20B4B9A72BB88DAB2094BDA723B8820
:1014AC001B0A9BB2DAB2064B1A733B88DAB2044BB6
:1014BC005A73034B18460837BD4690BC704700BFA3
:1014CC007C00002080B400AF024B1846BD465DF88E
:1014DC00047B70479000002080B400AF024B18468C
:1014EC00BD465DF8047B70479800002080B400AFC7
:1014FC00044BDB681B0A03F007031846BD465DF876
:10150C00047B704700ED00E080B483B000AF03466D
:10151C00FB7197F90730002B0BDBFB7903F01F02F3
:10152C00074997F907305B09012000FA02F241F8EC
:10153C00232000BF0C37BD465DF8047B704700BF0D
:10154C0000E100E080B483B000AF03463960FB716A
:10155C0097F90730002B0ADB3B68DAB20C4997F994
:10156C0007301201D2B20B4483F800230AE03B6827
:10157C00DAB20849FB7903F00F03043B1201D2B233
:10158C000B441A7600BF0C37BD465DF8047B7047E0
:10159C0000E100E000ED00E080B489B000AFF8603D
:1015AC00B9607A60FB6803F00703FB61FB69C3F168
:1015BC000703042B28BF0423BB61FB690433062BF0
:1015CC0002D9FB69033B00E000237B614FF0FF3243
:1015DC00BB6902FA03F3DA43BB681A407B699A4091
:1015EC004FF0FF317B6901FA03F3D9437B680B4061
:1015FC00134318462437BD465DF8047B7047000042
:10160C0080B582B000AF78607B68013BB3F1807F1E
:10161C0001D301230FE00A4A7B68013B53600F2181
:10162C004FF0FF30FFF78EFF054B00229A60044B02
:10163C0007221A60002318460837BD4680BD00BF3C
:10164C0010E000E080B485B000AFF860B9607A605B
:10165C000D4ABB6813441B781A46FB6813441B687D
:10166C0023F0C0020849BB680B441B781946FB6881
:10167C000B4419467B6813430B6000BF1437BD46FF
:10168C005DF8047B704700BF5075000880B485B0CE
:10169C0000AFF860B9607A600D4ABB6813441B78E0
:1016AC001A46FB6813441B6823F490720849BB6804
:1016BC000B441B781946FB680B4419467B68134393
:1016CC000B6000BF1437BD465DF8047B704700BF4C
:1016DC005075000880B485B000AFF860B9607A60CE
:1016EC000D4ABB6813441B781A46FB6813441B68ED
:1016FC0023F400720849BB680B441B781946FB683D
:10170C000B4419467B6813430B6000BF1437BD466E
:10171C005DF8047B704700BF5075000880B485B03D
:10172C0000AFF860B9607A600D4ABB6813441B784F
:10173C001A46FB6813441B6823F480620849BB6893
:10174C000B441B781946FB680B4419467B68134302
:10175C000B6000BF1437BD465DF8047B704700BFBB
:10176C005075000880B485B000AFF860B9607A603D
:10177C000D4ABB6813441B781A46FB6813441B685C
:10178C0023F4C0520849BB680B441B781946FB680C
:10179C000B4419467B6813430B6000BF1437BD46DE
:1017AC005DF8047B704700BF5075000880B485B0AD
:1017BC0000AFF860B9607A600D4ABB6813441B78BF
:1017CC001A46FB6813441B6823F4C0420849BB68E3
:1017DC000B441B781946FB680B4419467B68134372
:1017EC000B6000BF1437BD465DF8047B704700BF2B
:1017FC005075000880B485B000AFF860B9607A60AD
:10180C000D4ABB6813441B781A46FB6813441B68CB
:10181C0023F440320849BB680B441B781946FB681B
:10182C000B4419467B6813430B6000BF1437BD464D
:10183C005DF8047B704700BF5075000880B485B01C
:10184C0000AFF860B9607A600D4ABB6813441B782E
:10185C001A46FB6813441B6823F060620849BB6896
:10186C000B441B781946FB680B4419467B681343E1
:10187C000B6000BF1437BD465DF8047B704700BF9A
:10188C005075000880B483B000AF786039600C4AA2
:10189C003B6813441B781A467B6813445B69084900
:1018AC003A680A44127811467A680A4423F0040311
:1018BC00536100BF0C37BD465DF8047B704700BF19
:1018CC005075000880B400AF054B1B68044A43F404
:1018DC000023136000BFBD465DF8047B704700BF5A
:1018EC000038024080B400AF054B1B68044A43F437
:1018FC008033136000BFBD465DF8047B704700BFAA
:10190C000038024080B400AF074B1B6803F400336F
:10191C00B3F5003F0CBF01230023DBB21846BD46D4
:10192C005DF8047B704700BF0038024080B483B080
:10193C0000AF7860064B9B6823F0030204497B6878
:10194C0013438B6000BF0C37BD465DF8047B7047BA
:10195C000038024080B400AF044B9B6803F00C03CA
:10196C001846BD465DF8047B704700BF0038024046
:10197C0080B483B000AF7860064B9B6823F0F00214
:10198C0004497B6813438B6000BF0C37BD465DF880
:10199C00047B70470038024080B483B000AF78609D
:1019AC00064B9B6823F4E05204497B6813438B601D
:1019BC0000BF0C37BD465DF8047B70470038024011
:1019CC0080B483B000AF7860064B9B6823F4604210
:1019DC0004497B6813438B6000BF0C37BD465DF830
:1019EC00047B70470038024080B483B000AF78604D
:1019FC00074BD3F88C3023F0807205497B68134376
:101A0C00C1F88C3000BF0C37BD465DF8047B7047C5
:101A1C000038024080B400AF054B1B68044A43F009
:101A2C008073136000BFBD465DF8047B704700BF38
:101A3C000038024080B400AF074B1B6803F0007302
:101A4C00B3F1007F0CBF01230023DBB21846BD4667
:101A5C005DF8047B704700BF0038024080B485B04D
:101A6C0000AFF860B9607A603B600D4B5A680D4B63
:101A7C001340F968BA6811437A6892010A4308491D
:101A8C0013434B60064B5B6823F4403204493B68BC
:101A9C0013434B6000BF1437BD465DF8047B7047A1
:101AAC00003802400080BFFF80B485B000AF786082
:101ABC00084B1A6B07497B6813430B63054B1A6B76
:101ACC007B681340FB60FB6800BF1437BD465DF8B4
:101ADC00047B70470038024080B485B000AF78605A
:101AEC00084B1A6C07497B6813430B64054B1A6C43
:101AFC007B681340FB60FB6800BF1437BD465DF884
:101B0C00047B70470038024080B485B000AF786029
:101B1C00084B5A6C07497B6813434B64054B5A6C52
:101B2C007B681340FB60FB6800BF1437BD465DF853
:101B3C00047B70470038024080B487B000AF7860F7
:101B4C003960174A3B68DBB2023352F823203B68FA
:101B5C001B0CDB4302EA03013B681B0C3B613B693A
:101B6C0093FAA3F3FB60FB687B617B69002B01D1CB
:101B7C00202303E07B69B3FA83F3DBB21A467B685C
:101B8C0003FA02F206483B68DBB20A43023340F820
:101B9C00232000BF1C37BD465DF8047B704700BF97
:101BAC000038014080B483B000AF7860064B1B68EE
:101BBC0023F00F0204497B6813430B6000BF0C3702
:101BCC00BD465DF8047B7047003C024080B400AF1A
:101BDC00044B1B6803F00F031846BD465DF8047BED
:101BEC00704700BF003C024080B400AF054B1B683F
:101BFC00044A23F48033136000BFBD465DF8047BB8
:101C0C00704700BF0070004080B483B000AF7860B4
:101C1C00064B1B6823F4404204497B6813430B605A
:101C2C0000BF0C37BD465DF8047B70470070004068
:101C3C0080B400AF074B5B6803F48043B3F5804F6F
:101C4C000CBF01230023DBB21846BD465DF8047BB4
:101C5C00704700BF0070004080B483B000AF786064
:101C6C0039607B685B6823F010023B681A437B6821
:101C7C005A6000BF0C37BD465DF8047B704780B4DA
:101C8C0083B000AF78607B681B6823F080027B68B0
:101C9C001A6000BF0C37BD465DF8047B704700002E
:101CAC0080B485B000AF786039603B68012B1CD0E4
:101CBC003B68042B17D03B68102B12D03B68402B91
:101CCC000DD03B68B3F5807F07D03B68B3F5806FD0
:101CDC0001D105230AE0062308E0042306E00323D0
:101CEC0004E0022302E0012300E00023FB737B6885
:101CFC0018331946FB7B0B4AD35C0B44BB60BB68A7
:101D0C001A68FB7B0849CB5C194604238B40DB43E8
:101D1C001A40BB681A6000BF1437BD465DF8047BDF
:101D2C00704700BF587500086075000880B485B016
:101D3C0000AF786039603B68012B1CD03B68042BEA
:101D4C0017D03B68102B12D03B68402B0DD03B6852
:101D5C00B3F5807F07D03B68B3F5806F01D10523C5
:101D6C000AE0062308E0042306E0032304E0022330
:101D7C0002E0012300E00023FB737B681833194653
:101D8C00FB7B0A4AD35C0B44BB60BB681A68FB7BC9
:101D9C000749CB5C194608238B401A43BB681A6071
:101DAC0000BF1437BD465DF8047B704758750008BA
:101DBC006075000880B483B000AF786039607B68D0
:101DCC009B6823F4804323F007033A681A437B682B
:101DDC009A6000BF0C37BD465DF8047B704780B439
:101DEC0083B000AF786039607B685B6823F0700269
:101DFC003B681A437B685A6000BF0C37BD465DF8E0
:101E0C00047B704780B483B000AF78607B689B68BC
:101E1C0023F080027B689A6000BF0C37BD465DF8EA
:101E2C00047B704780B48BB000AFF860B9607A6007
:101E3C00FB681A68BB687B617B6993FAA3F33B610F
:101E4C003B69BB61BB69002B01D1202303E0BB695B
:101E5C00B3FA83F3DBB25B00032101FA03F3DB4338
:101E6C001A40BB683B623B6A93FAA3F3FB61FB69C4
:101E7C007B627B6A002B01D1202303E07B6AB3FADF
:101E8C0083F3DBB25B00796801FA03F31A43FB6856
:101E9C001A6000BF2C37BD465DF8047B704780B4D8
:101EAC008BB000AFF860B9607A60FB68DA68BB6829
:101EBC007B617B6993FAA3F33B613B69BB61BB69B3
:101ECC00002B01D1202303E0BB69B3FA83F3DBB20F
:101EDC005B00032101FA03F3DB431A40BB683B624E
:101EEC003B6A93FAA3F3FB61FB697B627B6A002B71
:101EFC0001D1202303E07B6AB3FA83F3DBB25B00EE
:101F0C00796801FA03F31A43FB68DA6000BF2C37D7
:101F1C00BD465DF8047B704780B483B000AF786039
:101F2C0039603B681A047B689A6100BF0C37BD4668
:101F3C005DF8047B70470000F0B5BFB010AF504B9C
:101F4C001B684F4A43F4007313604D4B1B684C4A9B
:101F5C0043F4806313604A4B1B68494A43F4807313
:101F6C00136000F0B1FE00F0A9F8464B1B68464A1E
:101F7C00A2FB03239B091846FFF742FB00F086FAED
:101F8C0000F06CFA00F0F0F800F02EF900F0C8F94F
:101F9C0000F0F8F93D4A07F1AC0392E8030083E83E
:101FAC0003003B4B07F19C040FCB84E80F00394B2B
:101FBC00BB6707F17C0307F1AC0292E8030083E8EE
:101FCC000300354BC7F884302023A7F88830324BF8
:101FDC00C7F88C301023A7F890302F4BC7F89430EB
:101FEC008023A7F898302D4B1D683E1D0BAC07F1D4
:101FFC009C030FCB84E80F0002230A9307F17803AC
:10200C000993274B0893274B0793274B0693274B92
:10201C0005930223049300230393002302934FF4AC
:10202C00A0730193F0230093F023F022314628464D
:10203C00FEF794FA0346194A1360184B1B68C7F84D
:10204C00B430D7F8B400FEF7FFFB4FF47F01D7F89C
:10205C00B400FEF7E9FE00230393FF230293144B15
:10206C000193144B0093144B00220021D7F8B400B9
:10207C00FFF7B8F84FF4FA6002F0EAFBFEE700BF96
:10208C00003C0240A0000020D34D621070490008B3
:10209C0078490008003C0040000C0240C8000020B9
:1020AC00E5140008D114000851140008B1130008FD
:1020BC0000FFFF00000000206049000880B500AF61
:1020CC000220FFF76FFD00BFFFF780FD0346022BD8
:1020DC00FAD14FF48040FFF797FDFFF785FDFFF72E
:1020EC0001FC00BFFFF70EFC0346012BFAD1FFF7F2
:1020FC00E9FB0023482204214FF48000FFF7AEFCDB
:10210C00FFF788FC00BFFFF795FC0346012BFAD1C3
:10211C0000BFFFF78DFD0346002BFAD00020FFF720
:10212C0027FC4FF48050FFF737FC0020FFF748FCEA
:10213C000220FFF7FBFB00BFFFF70CFC0346082B4C
:10214C00FAD1084802F0AAFB0F2000F0BFFC0346AE
:10215C00002B01D000F022FC0020FFF745FC00BF53
:10216C0080BD00BF00A24A0480B500AF1B4B1C4AC7
:10217C001A601A4B1B4A5A60184B00229A60174B74
:10218C000022DA60154B4FF480421A61134B002287
:10219C005A61124B00229A61104B0022DA610F4BEC
:1021AC0000221A620D4801F053F80346002B01D0AF
:1021BC0000F0F4FB0021094801F08EF90346002BD6
:1021CC0001D000F0EBFB0021044801F0C1F90346FB
:1021DC00002B01D000F0E2FB00BF80BDCC00002042
:1021EC00005C0040A086010080B590B000AF07F104
:1021FC00180328220021184602F084FB3B460022DB
:10220C001A605A609A60DA601A615A614FF40040A1
:10221C00FFF762FC0420FFF747FC0220FFF744FCA9
:10222C004FF480533B6002237B600323BB6000238D
:10223C00FB6001233B6106237B613B461946344816
:10224C0001F01EFF08233B6002237B600323BB606D
:10225C000023FB6001233B6106237B613B4619464F
:10226C002C4801F00DFF002205212B48FFF7E6FA60
:10227C00402205212848FFF7E5F9002205212648D0
:10228C00FFF7B8FA4FF4807205212348FFF7FEF9E7
:10229C00002205212048FFF71DFA4FF4806205212A
:1022AC001D48FFF73BFA4FF4006205211A48FFF76F
:1022BC0059FA4FF4005205211748FFF777FA052118
:1022CC001548FFF7DFFA0023BB614FF48273FB6103
:1022DC004FF400633B6202237B620023BB624FF42A
:1022EC000073FB6208233B6300237B630023BB6307
:1022FC000A23FB6307F118031946084801F064FF31
:10230C0000210648FFF7A8FC00BF4037BD4680BD42
:10231C00000802400004024000600240003C004003
:10232C0080B586B000AF3B1D00221A605A609A60DF
:10233C00DA601A610120FFF7E7FB0023BB80002362
:10234C00BB604FF6FF73FB6000233B6100237B6196
:10235C003B1D19460A4801F0FBFF0948FFF78FFCAB
:10236C0000210748FFF726FD00210548FFF737FD40
:10237C000348FFF747FD00BF1837BD4680BD00BFBF
:10238C000000014080B594B000AF07F13C0300227F
:10239C001A605A609A60DA601A6107F11C032022F5
:1023AC000021184602F0AEFA3B1D00221A605A605A
:1023BC009A60DA601A615A610220FFF78DFB40F2D5
:1023CC00E733BB8700233B64B3237B640023BB64EC
:1023DC0007F13C0319461F4801F0BAFF1D48FFF7EF
:1023EC004EFC01211B48FFF7A1FC6023FB6100237D
:1023FC003B6200237B625923BB620023FB6207F123
:10240C001C031A460121134802F03CF80121114823
:10241C00FFF746FC00210F48FFF7E1FC0D48FFF7E2
:10242C00F1FC0220FFF740FB10237B600223BB6012
:10243C000023FB6000233B6100237B610223BB6113
:10244C003B1D1946044801F01BFE00BF5037BD462A
:10245C0080BD00BF000400400004024080B500AF06
:10246C004FF40010FFF720FBFFF740F80346002263
:10247C0000211846FFF790F8034619461020FFF785
:10248C0061F81020FFF740F800BF80BD80B588B020
:10249C0000AF07F1180300221A605A603B46002275
:1024AC001A605A609A60DA601A615A610420FFF768
:1024BC00FBFA2020FFF7F8FA8020FFF7F5FA01204D
:1024CC00FFF7F2FA0220FFF7EFFA4020FFF7ECFAE1
:1024DC001020FFF7E9FA0820FFF7E6FA1621B848B2
:1024EC00FFF71AFD8021B748FFF716FD43F2B00144
:1024FC00B548FFF711FD4FF4C041B448FFF70CFD90
:10250C004FF63F033B6002237B600323BB60002339
:10251C00FB6000233B610C237B613B461946AC48B6
:10252C0001F0AEFD4FF460733B6002237B6000232F
:10253C00BB600023FB6000233B6105237B613B46B2
:10254C001946A34801F09CFD4FF480633B600223C5
:10255C007B600023BB600023FB6000233B610E23E8
:10256C007B613B4619469A4801F08AFD01233B608A
:10257C0002237B600323BB600023FB6000233B61D1
:10258C000C237B613B4619468D4801F079FD1623DF
:10259C003B6001237B600023BB600023FB600023B6
:1025AC003B613B461946864801F06AFD41F65803EB
:1025BC003B6002237B600023BB600023FB60002395
:1025CC003B610E237B613B4619467E4801F058FD6A
:1025DC0080233B6001237B600023BB600023FB60F6
:1025EC0000233B613B461946764801F049FD032325
:1025FC003B6002237B600023BB600023FB60002355
:10260C003B6109237B613B461946724801F038FD5A
:10261C0004233B6000237B6000233B613B4619464F
:10262C006C4801F02DFD48F233133B6002237B60B4
:10263C000323BB600023FB6000233B610C237B6105
:10264C003B461946614801F01BFD4FF683733B6016
:10265C0002237B600323BB600023FB6000233B61F0
:10266C000C237B613B4619465B4801F009FD4FF496
:10267C0070633B6002237B600023BB600023FB6024
:10268C0000233B610E237B613B461946514801F008
:10269C00F7FC4FF450433B6002237B600023BB608C
:1026AC000023FB6000233B610C237B613B461946F6
:1026BC00484801F0E5FC4FF400533B6000237B607D
:1026CC0000233B613B461946424801F0D9FC4CF2D1
:1026DC0003733B6002237B600323BB600023FB601E
:1026EC0000233B610C237B613B461946364801F0C5
:1026FC00C7FC4FF400633B6000237B6000233B610D
:10270C003B461946304801F0BBFC43F2B0033B603A
:10271C0001237B600023BB600023FB6000233B6133
:10272C003B461946284801F0ABFC4FF40C633B6068
:10273C0002237B600023BB600023FB6000233B6112
:10274C000E237B613B461946204801F099FC4FF45F
:10275C0098633B6002237B600023BB600023FB601B
:10276C0000233B610E237B613B461946144801F064
:10277C0087FC4FF4C0633B6002237B600323BB6088
:10278C000023FB6000233B6107237B613B4619461A
:10279C000C4801F075FC48233B6002237B6000234E
:1027AC00BB600023FB6000233B610E237B613B4637
:1027BC001946054801F064FC4FF4A0533B600DE052
:1027CC000008024000000240000C024000180240C9
:1027DC0000140240000402400010024002237B60FF
:1027EC000023BB600023FB6000233B6109237B615A
:1027FC003B4619465A4801F043FC4FF4C0433B603A
:10280C0001237B600023BB600023FB6000233B6142
:10281C003B461946524801F033FC60233B600223CF
:10282C007B600323BB600023FB6000233B610C2314
:10283C007B613B4619464B4801F022FC4FF470215A
:10284C000020FFF779F94FF470010020FFF774F9BD
:10285C004FF070610020FFF76FF943490220FFF73A
:10286C006BF942490020FFF767F90123BB61012393
:10287C003B7701237B770123BB7707F118031846BD
:10288C0001F032FA0223BB6101233B7701237B77F2
:10289C000123BB7707F11803184601F025FA04232E
:1028AC00BB6101233B7701237B770123BB7707F1C6
:1028BC001803184601F018FA2023BB6101233B775B
:1028CC0001237B770123BB7707F11803184601F02E
:1028DC000BFA4FF40043BB6101233B7701237B7759
:1028EC000123BB7707F11803184601F0FDF900220C
:1028FC0001211F48FFF7D3FA002202211C48FFF7E1
:10290C00CEFA002204211A48FFF7C9FA002220212E
:10291C001848FFF7C4FA00224FF400411448FFF79F
:10292C00BEFA002201211248FFF77CFA0022022194
:10293C000F48FFF777FA002204210D48FFF772FACF
:10294C00002220210B48FFF76DFA00224FF40041C2
:10295C000748FFF767FA00BF2037BD4680BD00BFB0
:10296C0000180240000402400100F000030000F0D7
:10297C00000002400008024080B582B000AF7860D1
:10298C007B681B68044A934201D100F0BFF900BF79
:10299C000837BD4680BD00BF0010004080B400AFBA
:1029AC0072B600BFFEE7000080B483B000AF002316
:1029BC007B60104B5B6C0F4A43F4804353640D4BAC
:1029CC005B6C03F480437B607B6800233B60094BAA
:1029DC001B6C084A43F080531364064B1B6C03F0CA
:1029EC0080533B603B6800BF0C37BD465DF8047BF1
:1029FC00704700BF0038024080B58AB000AF7860E5
:102A0C0007F1140300221A605A609A60DA601A61A6
:102A1C007B681B68294A93424BD100233B61284BAE
:102A2C001B6B274A43F004031363254B1B6B03F00A
:102A3C0004033B613B690023FB60214B1B6B204A69
:102A4C0043F0010313631E4B1B6B03F00103FB608C
:102A5C00FB684FF400737B611223BB610123FB61A4
:102A6C0000233B6204237B6207F1140319461548CB
:102A7C0000F042FA4FF480737B611223BB61012397
:102A8C00FB6100233B6204237B6207F114031946AC
:102A9C000D4800F031FA0023BB60094B1B6C084A4F
:102AAC0043F400031364064B1B6C03F40003BB607C
:102ABC00BB6800BF2837BD4680BD00BF005C00402E
:102ACC0000380240000802400000024080B58EB081
:102ADC0000AF78600023FB620023BB620023FB6025
:102AEC00334B1B6C324A43F010031364304B1B6C9A
:102AFC0003F01003FB60FB6807F1100207F11403ED
:102B0C001146184600F084FD3B6AFB62FB6A002B01
:102B1C0003D100F069FD786304E000F065FD034625
:102B2C005B007B637B6B234AA2FB03239B0C013B67
:102B3C00BB62214B214A1A601F4B40F2E732DA602C
:102B4C001D4ABB6A53601C4B00221A611A4B0022AF
:102B5C009A60194B00229A61174800F08BFD0346CE
:102B6C0087F8333097F83330002B1BD1124800F024
:102B7C00DBFD034687F8333097F83330002B11D147
:102B8C00362000F0ABF97B680F2B08D8002279684F
:102B9C00362000F087F90A4A7B68136002E00123B3
:102BAC0087F8333097F8333018463837BD4680BD38
:102BBC000038024083DE1B4324010020001000403B
:102BCC00A400002080B400AFFEE780B400AFFEE7A5
:102BDC0080B400AFFEE780B400AFFEE780B400AF76
:102BEC00FEE780B400AF00BFBD465DF8047B7047C4
:102BFC0080B400AF00BFBD465DF8047B704780B465
:102C0C0000AF00BFBD465DF8047B704780B400AFD9
:102C1C00044B1B680133034A136000BFBD465DF8CB
:102C2C00047B70472001002080B500AF05210248CD
:102C3C00FDF7FAFA00BF80BD0060024080B500AF1E
:102C4C00024800F0E1FD00BF80BD00BF2401002060
:102C5C0080B400AF064BD3F88830054A43F47003B8
:102C6C00C2F8883000BFBD465DF8047B704700BFDA
:102C7C0000ED00E0DFF834D0FFF7EAFF0C480D4917
:102C8C000D4A002302E0D458C4500433C4188C42BB
:102C9C00F9D30A4A0A4C002301E013600432A24221
:102CAC00FBD301F00BFEFFF747F970470000032040
:102CBC0000000020AC00002078750008AC0000205B
:102CCC0070010020FEE7000080B500AF0E4B1B68C2
:102CDC000D4A43F4007313600B4B1B680A4A43F410
:102CEC0080631360084B1B68074A43F480731360BE
:102CFC00032000F0CCF80F20FFF7E8FEFFF754FE9E
:102D0C000023184680BD00BF003C024080B400AFD9
:102D1C00064B1B781A46064B1B681344044A136077
:102D2C0000BFBD465DF8047B704700BFA8000020C3
:102D3C006C01002080B485B000AF78607B6803F034
:102D4C000703FB600C4BDB68BB60BA684FF6FF03F4
:102D5C001340BB60FB681A02BB68134343F0BF63AC
:102D6C0043F40033BB60044ABB68D36000BF143724
:102D7C00BD465DF8047B704700ED00E080B400AF09
:102D8C00044BDB681B0A03F007031846BD465DF8CD
:102D9C00047B704700ED00E080B483B000AF0346C5
:102DAC00FB7197F90730002B0BDBFB7903F01F024B
:102DBC00074997F907305B09012000FA02F241F844
:102DCC00232000BF0C37BD465DF8047B704700BF65
:102DDC0000E100E080B483B000AF03463960FB71C2
:102DEC0097F90730002B0ADB3B68DAB20C4997F9EC
:102DFC0007301201D2B20B4483F800230AE03B687F
:102E0C00DAB20849FB7903F00F03043B1201D2B28A
:102E1C000B441A7600BF0C37BD465DF8047B704737
:102E2C0000E100E000ED00E080B489B000AFF86094
:102E3C00B9607A60FB6803F00703FB61FB69C3F1BF
:102E4C000703042B28BF0423BB61FB690433062B47
:102E5C0002D9FB69033B00E000237B614FF0FF329A
:102E6C00BB6902FA03F3DA43BB681A407B699A40E8
:102E7C004FF0FF317B6901FA03F3D9437B680B40B8
:102E8C00134318462437BD465DF8047B704780B564
:102E9C0082B000AF78607868FFF74CFF00BF08374E
:102EAC00BD4680BD80B586B000AF0346B9607A6080
:102EBC00FB7300237B61FFF761FF78617A68B96867
:102ECC007869FFF7B1FF024697F90F3011461846A3
:102EDC00FFF780FF00BF1837BD4680BD80B582B0BC
:102EEC0000AF0346FB7197F907301846FFF754FF04
:102EFC0000BF0837BD4680BD80B489B000AF786094
:102F0C00396000237B6100233B610023BB610023FC
:102F1C00FB6177E10122FB6902FA03F37B613B68F9
:102F2C001B687A6913403B613A697B699A4240F0AD
:102F3C0066813B685B6803F00303012B05D03B689B
:102F4C005B6803F00303022B30D17B689B68BB6189
:102F5C00FB695B00032202FA03F3DB43BA691340FB
:102F6C00BB613B68DA68FB695B0002FA03F3BA6980
:102F7C001343BB617B68BA699A607B685B68BB6111
:102F8C000122FB6902FA03F3DB43BA691340BB610C
:102F9C003B685B681B0903F00102FB6902FA03F34F
:102FAC00BA691343BB617B68BA695A603B685B685A
:102FBC0003F00303032B17D07B68DB68BB61FB6951
:102FCC005B00032202FA03F3DB43BA691340BB61D3
:102FDC003B689A68FB695B0002FA03F3BA69134316
:102FEC00BB617B68BA69DA603B685B6803F003031A
:102FFC00022B23D1FB69DA087B68083253F82230A4
:10300C00BB61FB6903F007039B000F2202FA03F379
:10301C00DB43BA691340BB613B681A69FB6903F077
:10302C0007039B0002FA03F3BA691343BB61FB6904
:10303C00DA087B680832B96943F822107B681B6890
:10304C00BB61FB695B00032202FA03F3DB43BA6941
:10305C001340BB613B685B6803F00302FB695B00D8
:10306C0002FA03F3BA691343BB617B68BA691A604D
:10307C003B685B6803F44033002B00F0C0800023F6
:10308C00FB60664B5B6C654A43F480435364634B53
:10309C005B6C03F48043FB60FB68614AFB699B0833
:1030AC00023352F82330BB61FB6903F003039B002E
:1030BC000F2202FA03F3DB43BA691340BB617B684E
:1030CC00584A934237D07B68574A934231D07B6839
:1030DC00564A93422BD07B68554A934225D07B6845
:1030EC00544A93421FD07B68534A934219D07B6851
:1030FC00524A934213D07B68514A93420DD07B685D
:10310C00504A934207D07B684F4A934201D109231E
:10311C0012E00A2310E008230EE007230CE006233C
:10312C000AE0052308E0042306E0032304E002235D
:10313C0002E0012300E00023FA6902F0030292008E
:10314C009340BA691343BB613549FB699B08023351
:10315C00BA6941F823203D4B9B68BB613B69DB435B
:10316C00BA691340BB613B685B6803F48013002BA6
:10317C0003D0BA693B691343BB61344ABB699360A2
:10318C00324BDB68BB613B69DB43BA691340BB6103
:10319C003B685B6803F40013002B03D0BA693B69EE
:1031AC001343BB61294ABB69D360284B5B68BB6185
:1031BC003B69DB43BA691340BB613B685B6803F452
:1031CC000033002B03D0BA693B691343BB611F4A20
:1031DC00BB6953601D4B1B68BB613B69DB43BA6920
:1031EC001340BB613B685B6803F48033002B03D056
:1031FC00BA693B691343BB61144ABB691360FB6931
:10320C000133FB61FB690F2B7FF684AE00BF00BF5F
:10321C002437BD465DF8047B704700BF0038024080
:10322C000038014000000240000402400008024047
:10323C00000C024000100240001402400018024032
:10324C00001C02400020024000240240003C0140CF
:10325C0080B584B000AF78607B68002B01D101236E
:10326C002BE17B6893F83D30DBB2002B06D17B68F9
:10327C00002283F83C207868FFF7BEFB7B68242291
:10328C0083F83D207B681B681A687B681B6822F0FA
:10329C0001021A607B681B681A687B681B6842F421
:1032AC0000421A607B681B681A687B681B6822F4F2
:1032BC0000421A6000F098F9F8607B685B68814AFC
:1032CC00934207D8FB68804A934294BF01230023A2
:1032DC00DBB206E0FB687D4A934294BF01230023D6
:1032EC00DBB2002B01D00123E7E0FB68784AA2FB9C
:1032FC0003239B0CBB607B681B685B6823F03F015E
:10330C007B681B68BA680A435A607B681B681B6A37
:10331C0023F03F017B685B686A4A934202D8BB6822
:10332C00013309E0BB684FF4967202FB03F3694A60
:10333C00A2FB03239B0901337A6812680B431362C7
:10334C007B681B68DB6923F44F4222F0FF027B6829
:10335C005B685C498B4219D8FB68591E7B685B68BB
:10336C005B00B1FBF3F3591C40F6FC730B40002BD4
:10337C000AD0FB68591E7B685B685B00B1FBF3F3FA
:10338C000133C3F30B0351E004234FE07B689B68CC
:10339C00002B11D1FB68581E7B6859680B465B00EB
:1033AC000B44B0FBF3F30133C3F30B03002B0CBF43
:1033BC0001230023DBB212E0FB68581E7B685968BE
:1033CC000B469B000B4499000B44B0FBF3F3013309
:1033DC00C3F30B03002B0CBF01230023DBB2002B28
:1033EC0001D0012322E07B689B68002B0ED1FB6887
:1033FC00581E7B6859680B465B000B44B0FBF3F31B
:10340C000133C3F30B0343F400430FE0FB68581E76
:10341C007B6859680B469B000B4499000B44B0FB2E
:10342C00F3F30133C3F30B0343F4404379680968A6
:10343C001343CB617B681B681B6823F0C0017B685E
:10344C00DA697B681B6A1A437B681B680A431A603B
:10345C007B681B689B6823F4034323F0FF037A68A3
:10346C0011697A68D26811437A6812680B439360C9
:10347C007B681B68DB6823F0FF017B685A697B68FB
:10348C009B691A437B681B680A43DA607B681B687C
:10349C001A687B681B6842F001021A607B68002284
:1034AC001A647B68202283F83D207B6800221A6313
:1034BC007B68002283F83E20002318461037BD4657
:1034CC0080BD00BFA08601007F841E00FF083D0068
:1034DC0083DE1B43D34D621080B483B000AF7860A1
:1034EC0039607B6893F83D30DBB2202B29D17B68A7
:1034FC00242283F83D207B681B681A687B681B6854
:10350C0022F001021A607B681B685A6A7B681B6890
:10351C0022F010025A627B681B68596A7B681B6830
:10352C003A680A435A627B681B681A687B681B6896
:10353C0042F001021A607B68202283F83D200023B0
:10354C0000E0022318460C37BD465DF8047B70473B
:10355C0080B485B000AF786039600023FB817B6854
:10356C0093F83D30DBB2202B2AD17B68242283F8E0
:10357C003D207B681B681A687B681B6822F001027F
:10358C001A607B681B685B6AFB81FB8923F00F0365
:10359C00FB813B689AB2FB891343FB817B681B68F8
:1035AC00FA895A627B681B681A687B681B6842F050
:1035BC0001021A607B68202283F83D20002300E082
:1035CC00022318461437BD465DF8047B7047000093
:1035DC0080B400AF034B1B681846BD465DF8047BF6
:1035EC00704700BFA000002080B500AFFFF7F0FFD0
:1035FC000246054B9B689B0A03F007030349CB5C0F
:10360C0022FA03F3184680BD0038024068750008A2
:10361C0080B483B000AF786039607B680F221A6089
:10362C00124B9B6803F003027B685A600F4B9B683C
:10363C0003F0F0027B689A600C4B9B6803F4E05239
:10364C007B68DA60094B9B68DB0803F4E0527B680B
:10365C001A61074B1B6803F00F023B681A6000BF2E
:10366C000C37BD465DF8047B704700BF0038024044
:10367C00003C024080B582B000AF78607B68002BC4
:10368C0001D1012341E07B6893F83D30DBB2002B84
:10369C0006D17B68002283F83C20786800F039F86A
:1036AC007B68022283F83D207B681A687B680433B0
:1036BC001946104600F0C0F97B68012283F84620B9
:1036CC007B68012283F83E207B68012283F83F202F
:1036DC007B68012283F840207B68012283F841201B
:1036EC007B68012283F842207B68012283F8432007
:1036FC007B68012283F844207B68012283F84520F3
:10370C007B68012283F83D20002318460837BD460C
:10371C0080BD80B483B000AF786000BF0C37BD466D
:10372C005DF8047B7047000080B485B000AF786012
:10373C007B6893F83D30DBB2012B01D001234EE0C6
:10374C007B68022283F83D207B681B68DA687B6803
:10375C001B6842F00102DA607B681B68234A9342C3
:10376C0022D07B681B68B3F1804F1DD07B681B682F
:10377C001F4A934218D07B681B681E4A934213D091
:10378C007B681B681C4A93420ED07B681B681B4AE3
:10379C00934209D07B681B68194A934204D07B681A
:1037AC001B68184A934211D17B681B689B6803F015
:1037BC000703FB60FB68062B10D07B681B681A683C
:1037CC007B681B6842F001021A6007E07B681B688B
:1037DC001A687B681B6842F001021A6000231846C5
:1037EC001437BD465DF8047B704700BF00000140F4
:1037FC000004004000080040000C004000040140A0
:10380C00004001400018004080B584B000AF7860E3
:10381C007B681B68DB68FB607B681B681B69BB6093
:10382C00BB6803F00203002B20D0FB6803F00203FB
:10383C00002B1BD07B681B686FF002021A617B683F
:10384C0001221A777B681B689B6903F00303002B2A
:10385C0003D0786800F0D2F805E0786800F0C4F87E
:10386C00786800F0D5F87B6800221A77BB6803F003
:10387C000403002B20D0FB6803F00403002B1BD0A7
:10388C007B681B686FF004021A617B6802221A774E
:10389C007B681B689B6903F44073002B03D078682A
:1038AC0000F0ACF805E0786800F09EF8786800F05D
:1038BC00AFF87B6800221A77BB6803F00803002B73
:1038CC0020D0FB6803F00803002B1BD07B681B681F
:1038DC006FF008021A617B6804221A777B681B68F8
:1038EC00DB6903F00303002B03D0786800F086F843
:1038FC0005E0786800F078F8786800F089F87B6863
:10390C0000221A77BB6803F01003002B20D0FB6851
:10391C0003F01003002B1BD07B681B686FF01002A8
:10392C001A617B6808221A777B681B68DB6903F4D1
:10393C004073002B03D0786800F060F805E07868DD
:10394C0000F052F8786800F063F87B6800221A7770
:10395C00BB6803F00103002B0CD0FB6803F00103E0
:10396C00002B07D07B681B686FF001021A61786826
:10397C00FFF702F8BB6803F08003002B0CD0FB6848
:10398C0003F08003002B07D07B681B686FF080026C
:10399C001A61786800F006F9BB6803F04003002B4D
:1039AC000CD0FB6803F04003002B07D07B681B682E
:1039BC006FF040021A61786800F034F8BB6803F0CD
:1039CC002003002B0CD0FB6803F02003002B07D046
:1039DC007B681B686FF020021A61786800F0D8F8D9
:1039EC0000BF1037BD4680BD80B483B000AF786097
:1039FC0000BF0C37BD465DF8047B704780B483B0C4
:103A0C0000AF786000BF0C37BD465DF8047B704793
:103A1C0080B483B000AF786000BF0C37BD465DF852
:103A2C00047B704780B483B000AF786000BF0C3764
:103A3C00BD465DF8047B704780B485B000AF7860FC
:103A4C0039607B681B68FB607B68464A934213D0E5
:103A5C007B68B3F1804F0FD07B68434A93420BD005
:103A6C007B68424A934207D07B68414A934203D019
:103A7C007B68404A934208D1FB6823F07003FB60DB
:103A8C003B685B68FA681343FB607B68354A93427A
:103A9C002BD07B68B3F1804F27D07B68324A93429E
:103AAC0023D07B68314A93421FD07B68304A9342C3
:103ABC001BD07B682F4A934217D07B682E4A9342C7
:103ACC0013D07B682D4A93420FD07B682C4A9342CB
:103ADC000BD07B682B4A934207D07B682A4A9342CF
:103AEC0003D07B68294A934208D1FB6823F44073C6
:103AFC00FB603B68DB68FA681343FB60FB6823F0F0
:103B0C0080023B685B691343FB607B68FA681A6050
:103B1C003B689A687B68DA623B681A687B689A62D1
:103B2C007B68104A934203D07B68124A934203D1BC
:103B3C003B681A697B681A637B6801225A617B684F
:103B4C001B6903F00103012B05D17B681B6923F072
:103B5C0001027B681A6100BF1437BD465DF8047B17
:103B6C00704700BF00000140000400400008004006
:103B7C00000C0040000401400040014000440140A2
:103B8C000048014000180040001C0040002000408C
:103B9C0080B483B000AF786000BF0C37BD465DF8D1
:103BAC00047B704780B483B000AF786000BF0C37E3
:103BBC00BD465DF8047B704780B483B000AF78607D
:103BCC00054B1A6804497B6813430B6000BF0C3724
:103BDC00BD465DF8047B7047003C014080B483B067
:103BEC0000AF7860064B1A687B68DB4304491340CE
:103BFC000B6000BF0C37BD465DF8047B704700BFFF
:103C0C00003C014080B483B000AF7860054B5A682B
:103C1C0004497B6813434B6000BF0C37BD465DF80D
:103C2C00047B7047003C014080B483B000AF7860E7
:103C3C00064B5A687B68DB43044913404B6000BF5A
:103C4C000C37BD465DF8047B704700BF003C01405B
:103C5C0080B483B000AF7860054B9A6804497B68E8
:103C6C0013438B6000BF0C37BD465DF8047B704777
:103C7C00003C014080B483B000AF7860064B9A687A
:103C8C007B68DB43044913408B6000BF0C37BD4697
:103C9C005DF8047B704700BF003C014080B483B0EA
:103CAC0000AF7860054BDA6804497B681343CB603E
:103CBC0000BF0C37BD465DF8047B7047003C0140EB
:103CCC0080B483B000AF7860064BDA687B68DB4366
:103CDC0004491340CB6000BF0C37BD465DF8047B34
:103CEC00704700BF003C014080B584B000AF7860E5
:103CFC000023FB737B681B79002B65D07B681B68EA
:103D0C00002B6CD07B685B79022B1CD0022B25DC42
:103D1C00002B02D0012B0BD020E07B681B681846CF
:103D2C00FFF782FF7B681B681846FFF745FF18E01A
:103D3C007B681B681846FFF751FF7B681B681846A9
:103D4C00FFF760FF0DE07B681B681846FFF734FF38
:103D5C007B681B681846FFF755FF02E00123FB73D5
:103D6C0000BF7B689B79002B39D07B689B79032B38
:103D7C001CD0032B25DC012B02D0022B0BD020E016
:103D8C007B681B681846FFF79BFF7B681B6818460F
:103D9C00FFF75EFF24E07B681B681846FFF76AFF9D
:103DAC007B681B681846FFF779FF19E07B681B6876
:103DBC001846FFF74DFF7B681B681846FFF76EFF30
:103DCC000EE00123FB730BE07B681B681846FFF7C2
:103DDC0005FF7B681B681846FFF726FF00E000BF55
:103DEC00FB7B18461037BD4680BD80B48BB000AF4E
:103DFC00F860B9607A60FB681A68BB687B617B69A4
:103E0C0093FAA3F33B613B69BB61BB69002B01D106
:103E1C00202303E0BB69B3FA83F3DBB25B0003211D
:103E2C0001FA03F3DB431A40BB683B623B6A93FA2B
:103E3C00A3F3FB61FB697B627B6A002B01D120231E
:103E4C0003E07B6AB3FA83F3DBB25B00796801FAB7
:103E5C0003F31A43FB681A6000BF2C37BD465DF8AC
:103E6C00047B704780B485B000AFF860B9607A60AD
:103E7C00FB685A68BB68DB431A40BB68796801FB76
:103E8C0003F31A43FB685A6000BF1437BD465DF854
:103E9C00047B704780B48BB000AFF860B9607A6077
:103EAC00FB689A68BB687B617B6993FAA3F33B61FF
:103EBC003B69BB61BB69002B01D1202303E0BB69CB
:103ECC00B3FA83F3DBB25B00032101FA03F3DB43A8
:103EDC001A40BB683B623B6A93FAA3F3FB61FB6934
:103EEC007B627B6A002B01D1202303E07B6AB3FA4F
:103EFC0083F3DBB25B00796801FA03F31A43FB68C6
:103F0C009A6000BF2C37BD465DF8047B704780B4C7
:103F1C008BB000AFF860B9607A60FB68DA68BB6898
:103F2C007B617B6993FAA3F33B613B69BB61BB6922
:103F3C00002B01D1202303E0BB69B3FA83F3DBB27E
:103F4C005B00032101FA03F3DB431A40BB683B62BD
:103F5C003B6A93FAA3F3FB61FB697B627B6A002BE0
:103F6C0001D1202303E07B6AB3FA83F3DBB25B005D
:103F7C00796801FA03F31A43FB68DA6000BF2C3747
:103F8C00BD465DF8047B704780B48BB000AFF86021
:103F9C00B9607A60FB681A6ABB687B617B6993FACB
:103FAC00A3F33B613B69BB61BB69002B01D12023AF
:103FBC0003E0BB69B3FA83F3DBB29B000F2101FA78
:103FCC0003F3DB431A40BB683B623B6A93FAA3F3EF
:103FDC00FB61FB697B627B6A002B01D1202303E030
:103FEC007B6AB3FA83F3DBB29B00796801FA03F3C3
:103FFC001A43FB681A6200BF2C37BD465DF8047B80
:10400C00704780B48BB000AFF860B9607A60FB6821
:10401C005A6ABB681B0A7B617B6993FAA3F33B6109
:10402C003B69BB61BB69002B01D1202303E0BB6959
:10403C00B3FA83F3DBB29B000F2101FA03F3DB43EA
:10404C001A40BB681B0A3B623B6A93FAA3F3FB6101
:10405C00FB697B627B6A002B01D1202303E07B6A26
:10406C00B3FA83F3DBB29B00796801FA03F31A43CA
:10407C00FB685A6200BF2C37BD465DF8047B704765
:10408C0080B58AB000AF7860396000237B62002372
:10409C003B623B681B68BB61BB6993FAA3F37B6112
:1040AC007B69FB61FB69002B01D1202303E0FB69D9
:1040BC00B3FA83F3DBB27B6257E03B681A680121E9
:1040CC007B6A01FA03F313403B623B6A002B49D035
:1040DC003B685B68012B03D03B685B68022B0DD1FE
:1040EC003B689B681A46396A7868FFF7D3FE3B68D1
:1040FC00DB681A46396A7868FFF7B4FE3B681B69BF
:10410C001A46396A7868FFF702FF3B685B68022B36
:10411C0021D13B6AFB60FB6893FAA3F3BB60BB68DD
:10412C003B613B69002B01D1202303E03B69B3FACF
:10413C0083F3DBB2072B07D83B685B691A46396AF5
:10414C007868FFF721FF06E03B685B691A46396A1D
:10415C007868FFF756FF3B685B681A46396A7868DF
:10416C00FFF743FE7B6A01337B623B681A687B6A0C
:10417C0022FA03F3002BA0D1002318462837BD46A2
:10418C0080BD80B483B000AF78607B681B6803F09F
:10419C004003402B01D1012300E0002318460C37CB
:1041AC00BD465DF8047B704780B483B000AF786087
:1041BC0039603B689BB21A467B681A6100BF0C37AA
:1041CC00BD465DF8047B704780B584B000AF786065
:1041DC0039600123FB737868FFF7D3FF0346002B8C
:1041EC0039D17B681B6823F47F4323F0BF033A6803
:1041FC0011683A68526811433A68926811433A68F8
:10420C00D26811433A68126911433A6852691143F2
:10421C003A68926911433A68D26911433A68126A52
:10422C000A431A437B681A607B685B6823F00402BC
:10423C003B685B691B0C1A437B685A603B681B6AC2
:10424C00B3F5005F05D13B685B6A19467868FFF7E8
:10425C00ABFF0023FB737B68DB6923F400627B6894
:10426C00DA61FB7B18461037BD4680BD80B483B045
:10427C0000AF786039607B683A689A6200BF0C378F
:10428C00BD465DF8047B704780B483B000AF7860A6
:10429C0039607B683A68DA6200BF0C37BD465DF85E
:1042AC00047B704780B483B000AF786039607B6862
:1042BC003A681A6300BF0C37BD465DF8047B704743
:1042CC0080B483B000AF786039607B683A685A6319
:1042DC0000BF0C37BD465DF8047B704780B483B0DB
:1042EC0000AF786039607B683A689A6300BF0C371E
:1042FC00BD465DF8047B704780B483B000AF786036
:10430C0039607B683A68DA6300BF0C37BD465DF8EC
:10431C00047B704780B483B000AF786039607B68F1
:10432C003A681A6400BF0C37BD465DF8047B7047D1
:10433C0080B483B000AF78607B685B6943F00102A6
:10434C007B685A6100BF0C37BD465DF8047B704733
:10435C0080B584B000AF786039607B681B68FB6007
:10436C007B683D4A934213D07B68B3F1804F0FD0EA
:10437C007B683A4A93420BD07B68394A934207D008
:10438C007B68384A934203D07B68374A934206D104
:10439C00FB6823F070023B685B681343FB607B682F
:1043AC002D4A93422BD07B68B3F1804F27D07B688A
:1043BC002A4A934223D07B68294A93421FD07B68B8
:1043CC00284A93421BD07B68274A934217D07B68BC
:1043DC00264A934213D07B68254A93420FD07B68C0
:1043EC00244A93420BD07B68234A934207D07B68C4
:1043FC00224A934203D07B68214A934206D1FB6840
:10440C0023F440723B68DB681343FB607B68FA68FB
:10441C001A603B689B6819467868FFF735FF3B6864
:10442C001B8819467868FFF721FF7B680A4A93427C
:10443C0003D07B680C4A934205D13B681B69194633
:10444C007868FFF72FFF7868FFF772FF0023184694
:10445C001037BD4680BD00BF000001400004004085
:10446C0000080040000C00400004014000400140E6
:10447C00004401400048014000180040001C00406E
:10448C000020004080B586B000AFF860B9607A605B
:10449C000123FB75BB68B3F5805F27D0BB68B3F510
:1044AC00805F2AD8BB68B3F5807F18D0BB68B3F5A2
:1044BC00807F22D8BB68012B03D0BB68102B07D0A0
:1044CC001BE07968F86800F01FF80346FB7515E0EF
:1044DC007968F86800F084F80346FB750EE079689B
:1044EC00F86800F0EDF80346FB7507E07968F868AA
:1044FC0000F056F90346FB7500E000BFFB7D184643
:10450C001837BD4680BD000080B586B000AF78601E
:10451C0039607B681B6A23F001027B681A627B6836
:10452C001B6A7B617B685B683B617B689B69FB609A
:10453C00FB6823F00303FB60FB6823F070023B680D
:10454C001B681343FB607B6923F002023B681B6909
:10455C0013437B617B6923F001023B685B68134367
:10456C007B617B681C4A934203D07B681B4A934255
:10457C001ED17B6923F008023B685B699B001343E7
:10458C007B617B6923F004023B689B689B001343AF
:10459C007B613B6923F480723B689B6913433B61ED
:1045AC003B6923F400723B68DB695B0013433B619E
:1045BC007B683A695A607B68FA689A613B68DB6889
:1045CC0019467868FFF77CFE7B687A691A620023CB
:1045DC0018461837BD4680BD00000140000401405C
:1045EC0080B586B000AF786039607B681B6A23F0B9
:1045FC0010027B681A627B681B6A7B617B685B6854
:10460C003B617B689B69FB60FB6823F44073FB6038
:10461C00FB6823F4E0423B681B681B021343FB60FE
:10462C007B6923F020023B681B691B0113437B61F0
:10463C007B6923F010023B685B681B0113437B61B1
:10464C007B681D4A934203D07B681C4A93421FD15E
:10465C007B6923F080023B685B699B0113437B61A0
:10466C007B6923F040023B689B689B0113437B6191
:10467C003B6923F480623B689B699B0013433B615D
:10468C003B6923F400623B68DB69DB0013433B614D
:10469C007B683A695A607B68FA689A613B68DB68A8
:1046AC0019467868FFF71AFE7B687A691A6200234C
:1046BC0018461837BD4680BD00000140000401407B
:1046CC0080B586B000AF786039607B681B6A23F4D4
:1046DC0080727B681A627B681B6A7B617B685B6893
:1046EC003B617B68DB69FB60FB6823F00303FB60C9
:1046FC00FB6823F070023B681B681343FB607B690B
:10470C0023F400723B681B691B0213437B617B69BA
:10471C0023F480723B685B681B0213437B617B68EC
:10472C001D4A934203D07B681C4A93421FD17B697C
:10473C0023F400623B685B699B0213437B617B69DA
:10474C0023F480623B689B689B0213437B613B694B
:10475C0023F480523B689B691B0113433B613B690B
:10476C0023F400523B68DB695B0113433B617B68BC
:10477C003A695A607B68FA68DA613B68DB6819460B
:10478C007868FFF7B9FD7B687A691A6200231846CE
:10479C001837BD4680BD00BF000001400004014039
:1047AC0080B586B000AF786039607B681B6A23F4F3
:1047BC0080527B681A627B681B6A3B617B685B6812
:1047CC007B617B68DB69FB60FB6823F44073FB60F7
:1047DC00FB6823F4E0423B681B681B021343FB603D
:1047EC003B6923F400523B681B691B0313433B6179
:1047FC003B6923F480523B685B681B0313433B61AA
:10480C007B68114A934203D07B68104A934207D1CC
:10481C007B6923F480423B689B699B0113437B615A
:10482C007B687A695A607B68FA68DA613B68DB6896
:10483C0019467868FFF76EFD7B683A691A620023A7
:10484C0018461837BD4680BD0000014000040140E9
:10485C0080B485B000AF78600F4B1B68FB60FB68C1
:10486C007B68B3F1FF3F0CD07B6801337B6008E0C1
:10487C00094B1B6803F48033002B02D07B68013B8F
:10488C007B607B68002BF3D100BF00BF1437BD46A3
:10489C005DF8047B704700BF10E000E080B483B08B
:1048AC0000AF7860044A7B68136000BF0C37BD46CC
:1048BC005DF8047B704700BFA000002070B50D4D63
:1048CC000D4C641BA4100026A64209D10B4D0C4CB8
:1048DC0000F020F8641BA4100026A64205D170BD80
:1048EC0055F8043B98470136EEE755F8043B9847DA
:1048FC000136F2E7707500087075000870750008D5
:10490C007475000802440346934200D1704703F8C3
:10491C00011BF9E7F8B500BFF8BC08BC9E46704710
:0C492C00F8B500BFF8BC08BC9E46704700
:104938000006101600061016003A0166002A040048
:10494800000000002B0400000000002E00030000FF
:10495800003A01550300000048656C6C6F2C207705
:104968006F726C64210000000060024005000000C6
:1049780000040040010000000000000000003200B8
:10498800102840587088A0B80000000000000000FF
:10499800000000000000000000000000000000000F
:1049A80000000000000000000000000000000000FF
:1049B80000000000000000000000000000000000EF
:1049C80000000000000300030003000300030003CD
:1049D80000030003000300030000000380078007B2
:1049E80000030000000000000000000000000000BC
:1049F800000000000000C00CC00CC00CC00CC00CB3
:104A0800C00C0000000000000000000000000000D2
:104A1800000000000000000000000000000000008E
:104A280000000000000000001803180330063006DC
:104A3800FC7FFC7F600C600CC018C018F8FFF8FF02
:104A48008031803100630063000000000000000036
:104A58000000000000000000000000030003B00791
:104A6800F00F701C30180018E00FF0071800181825
:104A7800381CF01FE01B800180018001000000004D
:104A8800000000000000000000000000003E007769
:104A9800006300630077383EE0008003000EF838BA
:104AA800DC018C018C01DC01F80000000000000032
:104AB80000000000000000000000000000000000EE
:104AC800000FC01F80180018001C000C000E301FBB
:104AD800E033E031C030E038F01F300F0000000054
:104AE80000000000000000000000000000000000BE
:104AF800000300030003000300030003000000009C
:104B0800000000000000000000000000000000009D
:104B1800000000000000000000000000000000008D
:104B28000000C000C00100030003000600060006E4
:104B3800000C000C000C000C000C000C0006000619
:104B4800000600030003C001C000000000000000D0
:104B580000000000000C000E00030003800180012B
:104B68008001C000C000C000C000C000C0008001BB
:104B78008001800100030003000E000C000000000B
:104B88000000000000000003000300033033F03F82
:104B9800C00F8007C00FE01C4008000000000000A4
:104BA80000000000000000000000000000000000FD
:104BB80000000000000000000000000000000003EA
:104BC8000003000300030003F87FF87F00030003DD
:104BD80000030003000300000000000000000000C4
:104BE80000000000000000000000000000000000BD
:104BF80000000000000000000000000000000000AD
:104C0800C003C003800300070007000E000C000C5F
:104C1800000000000000000000000000000000008C
:104C2800000000000000000000000000F83FF83F0E
:104C3800000000000000000000000000000000006C
:104C4800000000000000000000000000000000005C
:104C5800000000000000000000000000000000004C
:104C68000000000000038007800700030000000028
:104C780000000000000000000000000030003000CC
:104C880060006000C000C0008001800100030003D4
:104C9800000300060006000C000C00180018003085
:104CA80000300000000000000000000000000000CC
:104CB80000008007E01F601830303030303030306E
:104CC800303030303030303030306018E01F8007FE
:104CD80000000000000000000000000000000000CC
:104CE800000000008003801F801D8001800180017A
:104CF8008001800180018001800180018001F81F0E
:104D0800F81F000000000000000000000000000084
:104D18000000000000008007E01F60183018300015
:104D280030006000E000C00180030007000E30186A
:104D3800F03FF03F0000000000000000000000000D
:104D48000000000000000000800FC03FE03060005D
:104D58006000E000C003E003700030003000300065
:104D68006038E03F800F00000000000000000000F5
:104D780000000000000000000000C000C001C003E7
:104D8800C002C006C00CC008C018C830F83FF83FC1
:104D9800C000C000F003F0030000000000000000A5
:104DA800000000000000000000000000E03FE03FBD
:104DB8000030003000308037E03F6038300030008D
:104DC800300030006038E03F800F00000000000035
:104DD8000000000000000000000000000000F001DA
:104DE800F00F000E0018001800308037E03F6038E0
:104DF8003030303030306018E01F8007000000008D
:104E0800000000000000000000000000000000009A
:104E1800F03FF03F303060006000C000C00080010B
:104E2800800180010003000300060006000C00005A
:104E3800000000000000000000000000000000006A
:104E480000008007E01F6018303030306018C00F55
:104E5800C00F60183030303030306018E01F8007E5
:104E6800000000000000000000000000000000003A
:104E7800000000008007E01F60183030303030300C
:104E88007018F01FB007300060006000C001C03F1C
:104E9800003E0000000000000000000000000000CC
:104EA8000000000000000000000000000003800770
:104EB80080070003000000000000000000038007D6
:104EC8008007000300000000000000000000000050
:104ED80000000000000000000000000000000003C7
:104EE8008007800700030000000000000000800722
:104EF80080070007000E000E001C001800180000B4
:104F08000000000000000000000000000000000099
:104F180018007800E0018007001E00780078001E65
:104F28008007E00178001800000000000000000081
:104F38000000000000000000000000000000000069
:104F48000000000000000000F87FF87F000000006B
:104F5800F87FF87F0000000000000000000000005B
:104F68000000000000000000000000000000000039
:104F78000000000000600078001E8007E001780053
:104F88007800E0018007001E007800600000000043
:104F98000000000000000000000000000000000009
:104FA800801FE01F6018300030007000E001C0076B
:104FB8000006000600000006000F000F00060000B3
:104FC80000000000000000000000000000000000D9
:104FD80000008007E01F601830303030F033703741
:104FE800303630367837D833003000300018E01FBC
:104FF800E0070000000000000000000000000000C2
:1050080000000000001F001F80078007C00CC00CB4
:10501800C00C6018E01FE01F601830303030FCFC16
:10502800FCFC000000000000000000000000000080
:10503800000000000000C07FE07F701830183018B2
:105048007018E01FF01F3818181818181818381892
:10505800F07FE07F0000000000000000000000007A
:105068000000000000000000D807F81F783C183046
:105078001870006000600060006000600070083018
:105088003C3CF81FE00700000000000000000000A2
:1050980000000000000000000000807FE07FF018A2
:1050A8003018381818181818181818181818381820
:1050B8003018F018E07F807F00000000000000003A
:1050C800000000000000000000000000F87FF87FEA
:1050D80018181818D818C018C01FC01FC018C01832
:1050E800181818181818F87FF87F0000000000003A
:1050F8000000000000000000000000000000FC3F6D
:10510800FC3F0C0C0C0C6C0C600CE00FE00F600CFE
:10511800600C000C000C000C803F803F0000000079
:105128000000000000000000000000000000000077
:10513800D807F81F783C18301870006000600060CD
:10514800FC61FC6118701830383CF81FE00700005B
:105158000000000000000000000000000000000047
:105168000000FCFCFCFC3030303030303030F03F98
:10517800F03F30303030303030303030FCFCFCFC28
:105188000000000000000000000000000000000017
:1051980000000000F03FF03F00030003000300039D
:1051A8000003000300030003000300030003F03FB3
:1051B800F03F0000000000000000000000000000B8
:1051C800000000000000FC07FC07600060006000B1
:1051D8006000600060006000606060606060C070D7
:1051E800C03F000F000000000000000000000000A9
:1051F8000000000000000000F8FCF8FC6030C0303F
:10520800803100330037803FC039E0306030703083
:1052180030303CFC3CFC00000000000000000000B6
:1052280000000000000000000000807F807F000C6C
:10523800000C000C000C000C000C000C0C0C0C0CEE
:105248000C0C0C0CFC7FFC7F000000000000000030
:105258000000000000000000000000003CF03CF0EE
:10526800787878787878D86CD86CD86C986798679C
:105278001863186318607CF87CF8000000000000D0
:105288000000000000000000000000000000FCF129
:10529800FCF93038303C303C303630363033B031C1
:1052A800B031F030F030703070FE30FE0000000099
:1052B80000000000000000000000000000000000E6
:1052C800C00FF03F787818601CE00CC00CC00CC010
:1052D8000CC00CC01CE018607878F03FC00F0000CC
:1052E80000000000000000000000000000000000B6
:1052F8000000C07FF07F30181818181818183018D8
:10530800F01FC01F0018001800180018807F807F49
:105318000000000000000000000000000000000085
:1053280000000000C00FF03F787818601CE00CC047
:105338000CC00CC00CC00CC01CE018607878F03FA2
:10534800C00F0004FC1F380E000000000000000021
:1053580000000000000080FFE0FF60303030303097
:1053680030306030E03F803FC031E0306030703036
:105378003CFC3CFC000000000000000000000000B5
:105388000000000000000000B007F01F7018303067
:1053980000300038E01FF00F3800180018301830BF
:1053A8003038F03FC0370000000000000000000067
:1053B80000000000000000000000F87FF87F18637C
:1053C8001863186318630003000300030003000355
:1053D80000030003E01FE01F0000000000000000C1
:1053E800000000000000000000000000FCFCFCFCC5
:1053F80030303030303030303030303030303030A5
:10540800303030306018E01F8007000000000000D6
:105418000000000000000000000000000000FCFC8C
:10542800FCFC303030303030601860186018C00C28
:10543800C00C8007800780070003000300000000FD
:105448000000000000000000000000000000000054
:105458007CF87CF8186018601860186330333033B3
:10546800B037B037B037E03CE01C60186018000077
:105478000000000000000000000000000000000024
:105488000000FCFCFCFC30306018C00CC00C80072D
:1054980000038007C00CC00C60183030FCFCFCFC1A
:1054A80000000000000000000000000000000000F4
:1054B80000000000FCFCFCFC303060186018C00CD8
:1054C800C00C800780070003000300030003E01FEF
:1054D800E01F0000000000000000000000000000C5
:1054E800000000000000F03FF03F7030E030C030B6
:1054F80080018001000300060006300C301C3038A3
:10550800F03FF03F00000000000000000000000035
:105518000000000000000000C007C00700060006E9
:105528000006000600060006000600060006000643
:10553800000600060006000600060006C007C007B1
:105548000000000000000030003000180018000CB7
:10555800000C000600060003000300038001800120
:10556800C000C00060006000300030000000000093
:10557800000000000000000000000000C007C00795
:10558800C000C000C000C000C000C000C000C00013
:10559800C000C000C000C000C000C000C000C00003
:1055A800C007C0070000000000008001C0036006BB
:1055B800300C0000000000000000000000000000A7
:1055C80000000000000000000000000000000000D3
:1055D80000000000000000000000000000000000C3
:1055E80000000000000000000000000000000000B3
:1055F80000000000000000000000000000000000A3
:105608000000FEFFFEFF0000000000000000000C8C
:10561800000E8003C0000000000000000000000031
:105628000000000000000000000000000000000072
:105638000000000000000000000000000000000062
:1056480000000000000000000000E007F01F38081C
:105658001800D807F81F3818183018307818FE1FA7
:105668009E0700000000000000000000000000008D
:10567800000000000078007800180018C01BF01F18
:10568800381C18180C180C180C180C181818381C7A
:10569800F07FC07B00000000000000000000000058
:1056A8000000000000000000000000000000CC0323
:1056B800FC0F3C1C0C180C3000300030003008186F
:1056C8001C1CF80FE00300000000000000000000B0
:1056D80000000000000000007800780018001800A2
:1056E800D803F80F381C181818301830183018302C
:1056F8001818381CFE0FDE03000000000000000030
:105708000000000000000000000000000000000091
:105718000000C003F00F381C18180C30FC3FFC3F89
:1057280000300018181CFC0FF003000000000000F7
:10573800000000000000000000000000FC00FC0168
:1057480080030003F81FF81F000300030003000391
:105758000003000300030003F81FF81F0000000007
:105768000000000000000000000000000000000031
:10577800000000000000DE03FE0F381C1818183067
:105788001830183018301818381CF80FD8071800B7
:1057980018006000E01F801F0000000000000000EB
:1057A8000078007800180018E019F01F381E181843
:1057B8001818181818181818181818187E7E7E7EC9
:1057C80000000000000000000000000000000000D1
:1057D80080018001800100000000801F801F80017F
:1057E8008001800180018001800180018001FC3FEF
:1057F800FC3F000000000000000000000000000066
:105808000000C000C000C00000000000E01FE01F52
:105818006000600060006000600060006000600080
:105828006000600060006000C000C01F001F000032
:10583800000000000000003C003C000C000CFC0CC8
:10584800FC0C600CC00C800D000F800FE00C700C7D
:10585800180C7E3C7E3C00000000000000000000A8
:105868000000000000000000801F801F80018001F0
:105878008001800180018001800180018001800118
:1058880080018001F81FF81F0000000000000000E0
:105898000000000000000000000000000000000000
:1058A80000007877FC7FCC398C318C318C318C318D
:1058B8008C318C318C31CE79CE790000000000001B
:1058C80000000000000000000000000000000000D0
:1058D80000000000E079F07F381E18181818181812
:1058E80018181818181818187E7E7E7E00000000F8
:1058F80000000000000000000000000000000000A0
:10590800000000000000C003F00F381C18180C300D
:105918000C300C300C301818381CF00FC003000085
:10592800000000000000000000000000000000006F
:105938000000000000000000C07BF07F381C181831
:105948000C180C180C180C181818381CF01FC01B51
:10595800001800180018807F807F000000000000F9
:1059680000000000000000000000DE03FE0F381CED
:10597800181818301830183018301818381CF80F44
:10598800D803180018001800FE01FE0100000000EE
:105998000000000000000000000000007C1EFE1E49
:1059A800CC070007000600060006000600060006F1
:1059B800E01FE01F000000000000000000000000E1
:1059C8000000000000000000000000000000D807F0
:1059D800F80F381C18180018F00FF8070C000C18EE
:1059E8001C1CF81FF01B0000000000000000000055
:1059F800000000000000000000000006000600068D
:105A0800F83FF83F000600060006000600060006FC
:105A180004060E07FC03F00100000000000000006F
:105A2800000000000000000000000000000000006E
:105A38000000F878F878181818181818181818188E
:105A480018181818781CFE0F9E07000000000000A8
:105A5800000000000000000000000000000000003E
:105A6800000000007E7E7E7E18181818300C300C5E
:105A780060066006C003C0038001800100000000CA
:105A8800000000000000000000000000000000000E
:105A98000000000000003E7C3E7C0C300C30981961
:105AA80098199819B00DF00F700E60066006000086
:105AB80000000000000000000000000000000000DE
:105AC80000000000000000007C3E7C3E300C6006B8
